{
  "_format": "hh-sol-artifact-1",
  "contractName": "BallotFactory",
  "sourceName": "contracts/BallotFactory.sol",
  "abi": [
    {
      "inputs": [
        {
          "internalType": "address",
          "name": "tokenAddress",
          "type": "address"
        }
      ],
      "stateMutability": "nonpayable",
      "type": "constructor"
    },
    {
      "anonymous": false,
      "inputs": [
        {
          "indexed": true,
          "internalType": "address",
          "name": "ballotAddress",
          "type": "address"
        },
        {
          "indexed": false,
          "internalType": "string",
          "name": "title",
          "type": "string"
        },
        {
          "indexed": false,
          "internalType": "uint256",
          "name": "dateToStart",
          "type": "uint256"
        },
        {
          "indexed": false,
          "internalType": "uint256",
          "name": "dateToEnd",
          "type": "uint256"
        },
        {
          "indexed": false,
          "internalType": "uint8",
          "name": "options",
          "type": "uint8"
        },
        {
          "indexed": false,
          "internalType": "uint256",
          "name": "ballotCount",
          "type": "uint256"
        }
      ],
      "name": "BallotCreated",
      "type": "event"
    },
    {
      "anonymous": false,
      "inputs": [
        {
          "indexed": true,
          "internalType": "bytes32",
          "name": "role",
          "type": "bytes32"
        },
        {
          "indexed": true,
          "internalType": "bytes32",
          "name": "previousAdminRole",
          "type": "bytes32"
        },
        {
          "indexed": true,
          "internalType": "bytes32",
          "name": "newAdminRole",
          "type": "bytes32"
        }
      ],
      "name": "RoleAdminChanged",
      "type": "event"
    },
    {
      "anonymous": false,
      "inputs": [
        {
          "indexed": true,
          "internalType": "bytes32",
          "name": "role",
          "type": "bytes32"
        },
        {
          "indexed": true,
          "internalType": "address",
          "name": "account",
          "type": "address"
        },
        {
          "indexed": true,
          "internalType": "address",
          "name": "sender",
          "type": "address"
        }
      ],
      "name": "RoleGranted",
      "type": "event"
    },
    {
      "anonymous": false,
      "inputs": [
        {
          "indexed": true,
          "internalType": "bytes32",
          "name": "role",
          "type": "bytes32"
        },
        {
          "indexed": true,
          "internalType": "address",
          "name": "account",
          "type": "address"
        },
        {
          "indexed": true,
          "internalType": "address",
          "name": "sender",
          "type": "address"
        }
      ],
      "name": "RoleRevoked",
      "type": "event"
    },
    {
      "anonymous": false,
      "inputs": [
        {
          "indexed": false,
          "internalType": "address",
          "name": "voter",
          "type": "address"
        },
        {
          "indexed": false,
          "internalType": "uint8",
          "name": "option",
          "type": "uint8"
        },
        {
          "indexed": false,
          "internalType": "uint256",
          "name": "amount",
          "type": "uint256"
        }
      ],
      "name": "Voted",
      "type": "event"
    },
    {
      "anonymous": false,
      "inputs": [
        {
          "indexed": false,
          "internalType": "address",
          "name": "voter",
          "type": "address"
        },
        {
          "indexed": false,
          "internalType": "uint8",
          "name": "option",
          "type": "uint8"
        }
      ],
      "name": "VotedRemaining",
      "type": "event"
    },
    {
      "inputs": [],
      "name": "DEFAULT_ADMIN_ROLE",
      "outputs": [
        {
          "internalType": "bytes32",
          "name": "",
          "type": "bytes32"
        }
      ],
      "stateMutability": "view",
      "type": "function"
    },
    {
      "inputs": [],
      "name": "TEAM_MEMBER",
      "outputs": [
        {
          "internalType": "bytes32",
          "name": "",
          "type": "bytes32"
        }
      ],
      "stateMutability": "view",
      "type": "function"
    },
    {
      "inputs": [
        {
          "internalType": "uint256",
          "name": "ballotID",
          "type": "uint256"
        },
        {
          "internalType": "uint8",
          "name": "option",
          "type": "uint8"
        },
        {
          "internalType": "string",
          "name": "title",
          "type": "string"
        }
      ],
      "name": "addTitleToOption",
      "outputs": [],
      "stateMutability": "nonpayable",
      "type": "function"
    },
    {
      "inputs": [],
      "name": "ballotCount",
      "outputs": [
        {
          "internalType": "uint256",
          "name": "",
          "type": "uint256"
        }
      ],
      "stateMutability": "view",
      "type": "function"
    },
    {
      "inputs": [
        {
          "internalType": "uint256",
          "name": "",
          "type": "uint256"
        }
      ],
      "name": "ballots",
      "outputs": [
        {
          "internalType": "address",
          "name": "",
          "type": "address"
        }
      ],
      "stateMutability": "view",
      "type": "function"
    },
    {
      "inputs": [
        {
          "internalType": "uint256",
          "name": "ballotID",
          "type": "uint256"
        }
      ],
      "name": "closeABallot",
      "outputs": [],
      "stateMutability": "nonpayable",
      "type": "function"
    },
    {
      "inputs": [
        {
          "internalType": "string",
          "name": "title",
          "type": "string"
        },
        {
          "internalType": "uint256",
          "name": "dateToStart",
          "type": "uint256"
        },
        {
          "internalType": "uint256",
          "name": "dateToEnd",
          "type": "uint256"
        },
        {
          "internalType": "uint8",
          "name": "options",
          "type": "uint8"
        }
      ],
      "name": "createBallot",
      "outputs": [],
      "stateMutability": "nonpayable",
      "type": "function"
    },
    {
      "inputs": [
        {
          "internalType": "uint256",
          "name": "ballotID",
          "type": "uint256"
        }
      ],
      "name": "defineWinner",
      "outputs": [],
      "stateMutability": "nonpayable",
      "type": "function"
    },
    {
      "inputs": [
        {
          "internalType": "uint256",
          "name": "ballotID",
          "type": "uint256"
        },
        {
          "internalType": "string",
          "name": "title",
          "type": "string"
        },
        {
          "internalType": "uint256",
          "name": "dateToStart",
          "type": "uint256"
        },
        {
          "internalType": "uint256",
          "name": "dateToEnd",
          "type": "uint256"
        },
        {
          "internalType": "uint8",
          "name": "options",
          "type": "uint8"
        }
      ],
      "name": "editBallot",
      "outputs": [],
      "stateMutability": "nonpayable",
      "type": "function"
    },
    {
      "inputs": [
        {
          "internalType": "uint256",
          "name": "ballotID",
          "type": "uint256"
        }
      ],
      "name": "getBallot",
      "outputs": [
        {
          "internalType": "string",
          "name": "title",
          "type": "string"
        },
        {
          "internalType": "uint256",
          "name": "dateToStart",
          "type": "uint256"
        },
        {
          "internalType": "uint256",
          "name": "dateToEnd",
          "type": "uint256"
        },
        {
          "internalType": "uint8",
          "name": "options",
          "type": "uint8"
        },
        {
          "internalType": "bool",
          "name": "isSealed",
          "type": "bool"
        }
      ],
      "stateMutability": "view",
      "type": "function"
    },
    {
      "inputs": [
        {
          "internalType": "bytes32",
          "name": "role",
          "type": "bytes32"
        }
      ],
      "name": "getRoleAdmin",
      "outputs": [
        {
          "internalType": "bytes32",
          "name": "",
          "type": "bytes32"
        }
      ],
      "stateMutability": "view",
      "type": "function"
    },
    {
      "inputs": [
        {
          "internalType": "bytes32",
          "name": "role",
          "type": "bytes32"
        },
        {
          "internalType": "address",
          "name": "account",
          "type": "address"
        }
      ],
      "name": "grantRole",
      "outputs": [],
      "stateMutability": "nonpayable",
      "type": "function"
    },
    {
      "inputs": [
        {
          "internalType": "bytes32",
          "name": "role",
          "type": "bytes32"
        },
        {
          "internalType": "address",
          "name": "account",
          "type": "address"
        }
      ],
      "name": "hasRole",
      "outputs": [
        {
          "internalType": "bool",
          "name": "",
          "type": "bool"
        }
      ],
      "stateMutability": "view",
      "type": "function"
    },
    {
      "inputs": [
        {
          "internalType": "bytes32",
          "name": "role",
          "type": "bytes32"
        },
        {
          "internalType": "address",
          "name": "account",
          "type": "address"
        }
      ],
      "name": "renounceRole",
      "outputs": [],
      "stateMutability": "nonpayable",
      "type": "function"
    },
    {
      "inputs": [
        {
          "internalType": "bytes32",
          "name": "role",
          "type": "bytes32"
        },
        {
          "internalType": "address",
          "name": "account",
          "type": "address"
        }
      ],
      "name": "revokeRole",
      "outputs": [],
      "stateMutability": "nonpayable",
      "type": "function"
    },
    {
      "inputs": [
        {
          "internalType": "uint256",
          "name": "ballotID",
          "type": "uint256"
        }
      ],
      "name": "sealABallot",
      "outputs": [],
      "stateMutability": "nonpayable",
      "type": "function"
    },
    {
      "inputs": [
        {
          "internalType": "bytes4",
          "name": "interfaceId",
          "type": "bytes4"
        }
      ],
      "name": "supportsInterface",
      "outputs": [
        {
          "internalType": "bool",
          "name": "",
          "type": "bool"
        }
      ],
      "stateMutability": "view",
      "type": "function"
    },
    {
      "inputs": [],
      "name": "token",
      "outputs": [
        {
          "internalType": "address",
          "name": "",
          "type": "address"
        }
      ],
      "stateMutability": "view",
      "type": "function"
    },
    {
      "inputs": [],
      "name": "viewAllBallotsAddresses",
      "outputs": [
        {
          "internalType": "address[]",
          "name": "",
          "type": "address[]"
        }
      ],
      "stateMutability": "view",
      "type": "function"
    },
    {
      "inputs": [
        {
          "internalType": "uint256",
          "name": "ballotID",
          "type": "uint256"
        }
      ],
      "name": "viewVoters",
      "outputs": [
        {
          "internalType": "address[]",
          "name": "",
          "type": "address[]"
        }
      ],
      "stateMutability": "view",
      "type": "function"
    },
    {
      "inputs": [
        {
          "internalType": "uint256",
          "name": "ballotID",
          "type": "uint256"
        },
        {
          "internalType": "uint8",
          "name": "option",
          "type": "uint8"
        },
        {
          "internalType": "uint256",
          "name": "amount",
          "type": "uint256"
        }
      ],
      "name": "vote",
      "outputs": [],
      "stateMutability": "nonpayable",
      "type": "function"
    }
  ],
  "bytecode": "0x60a06040523480156200001157600080fd5b5060405162003ad838038062003ad883398101604081905262000034916200012f565b620000416000336200007f565b6200006d7f6a74bd5720a9ba372841f356cf6872b1006d19dfc367da64ab98cf47824ed3c0336200007f565b6001600160a01b031660805262000161565b6200008b82826200008f565b5050565b6000828152602081815260408083206001600160a01b038516845290915290205460ff166200008b576000828152602081815260408083206001600160a01b03851684529091529020805460ff19166001179055620000eb3390565b6001600160a01b0316816001600160a01b0316837f2f8788117e7eff1d82e926ec794901d17c78024a50270940304540a733656f0d60405160405180910390a45050565b6000602082840312156200014257600080fd5b81516001600160a01b03811681146200015a57600080fd5b9392505050565b60805161394d6200018b600039600081816103700152818161065a015261071e015261394d6000f3fe60806040523480156200001157600080fd5b5060043610620001515760003560e01c8063a217fddf11620000c7578063d7c0be1d1162000086578063d7c0be1d14620002e2578063e520251a1462000308578063f46c57fe146200031f578063f62508a11462000336578063f9d5ee751462000340578063fc0c546a146200036a57600080fd5b8063a217fddf146200028a578063b27af1351462000293578063c003003214620002aa578063d547741f14620002b4578063d5c3bed514620002cb57600080fd5b806336568abe116200011457806336568abe14620001fe57806344427acd14620002155780635c632b38146200022c57806391d14854146200025c5780639fb05050146200027357600080fd5b806301ffc9a7146200015657806303242c031462000182578063248a9ca3146200019b5780632c4c7f8c14620001d05780632f2ff15d14620001e7575b600080fd5b6200016d6200016736600462001109565b62000392565b60405190151581526020015b60405180910390f35b620001996200019336600462001135565b620003ca565b005b620001c1620001ac36600462001135565b60009081526020819052604090206001015490565b60405190815260200162000179565b620001c1600080516020620038f883398151915281565b62000199620001f836600462001165565b62000467565b620001996200020f36600462001165565b62000495565b620001996200022636600462001279565b6200051b565b620002436200023d36600462001135565b620005c9565b6040516001600160a01b03909116815260200162000179565b6200016d6200026d36600462001165565b620005f4565b6200019962000284366004620012d8565b6200061d565b620001c1600081565b62000199620002a436600462001341565b620007d1565b620001c160025481565b62000199620002c536600462001165565b62000885565b62000199620002dc36600462001135565b620008ae565b620002f9620002f336600462001135565b6200092d565b604051620001799190620013b6565b620001996200031936600462001405565b620009cd565b620001996200033036600462001135565b62000aa3565b620002f962000b22565b620003576200035136600462001135565b62000b86565b6040516200017995949392919062001494565b620002437f000000000000000000000000000000000000000000000000000000000000000081565b60006001600160e01b03198216637965db0b60e01b1480620003c457506301ffc9a760e01b6001600160e01b03198316145b92915050565b600080516020620038f8833981519152620003e58162000dcc565b600060018381548110620003fd57620003fd620014d2565b60009182526020822001546040805163a97b8b4d60e01b815290516001600160a01b039092169350839263a97b8b4d9260048084019382900301818387803b1580156200044957600080fd5b505af11580156200045e573d6000803e3d6000fd5b50505050505050565b600082815260208190526040902060010154620004848162000dcc565b62000490838362000ddb565b505050565b6001600160a01b03811633146200050b5760405162461bcd60e51b815260206004820152602f60248201527f416363657373436f6e74726f6c3a2063616e206f6e6c792072656e6f756e636560448201526e103937b632b9903337b91039b2b63360891b60648201526084015b60405180910390fd5b62000517828262000e63565b5050565b600080516020620038f8833981519152620005368162000dcc565b6000600185815481106200054e576200054e620014d2565b60009182526020909120015460405163708988db60e11b81526001600160a01b039091169150819063e11311b6906200058e9087908790600401620014e8565b600060405180830381600087803b158015620005a957600080fd5b505af1158015620005be573d6000803e3d6000fd5b505050505050505050565b60018181548110620005da57600080fd5b6000918252602090912001546001600160a01b0316905081565b6000918252602082815260408084206001600160a01b0393909316845291905290205460ff1690565b600080516020620038f8833981519152620006388162000dcc565b600280549060006200064a836200151c565b91905055506000858585856002547f00000000000000000000000000000000000000000000000000000000000000006040516200068790620010fb565b620006989695949392919062001538565b604051809103906000f080158015620006b5573d6000803e3d6000fd5b506001805480820182556000919091527fb10e2d527612073b26eecdfd717e6a320cf44b4afac2b0732d9fcbe2b7fa0cf60180546001600160a01b0319166001600160a01b03838116918217909255604051633eb2b5ad60e01b815260048101919091529192507f00000000000000000000000000000000000000000000000000000000000000001690633eb2b5ad90602401600060405180830381600087803b1580156200076357600080fd5b505af115801562000778573d6000803e3d6000fd5b50505050806001600160a01b03167fc32dd25cec911afb469af973d17ef0da533d17efc4350f3a7d56240a84c0032087878787600254604051620007c195949392919062001582565b60405180910390a2505050505050565b600080516020620038f8833981519152620007ec8162000dcc565b600060018781548110620008045762000804620014d2565b60009182526020909120015460405163717f75e760e11b81526001600160a01b039091169150819063e2feebce9062000848908990899089908990600401620015be565b600060405180830381600087803b1580156200086357600080fd5b505af115801562000878573d6000803e3d6000fd5b5050505050505050505050565b600082815260208190526040902060010154620008a28162000dcc565b62000490838362000e63565b600080516020620038f8833981519152620008c98162000dcc565b600060018381548110620008e157620008e1620014d2565b600091825260208220015460408051631715acb960e01b815290516001600160a01b0390921693508392631715acb99260048084019382900301818387803b1580156200044957600080fd5b6060600060018381548110620009475762000947620014d2565b6000918252602082200154604080516349a354af60e11b815290516001600160a01b03909216935083928392639346a95e9260048082019392918290030181865afa1580156200099b573d6000803e3d6000fd5b505050506040513d6000823e601f3d908101601f19168201604052620009c59190810190620015f2565b949350505050565b600060018481548110620009e557620009e5620014d2565b60009182526020909120015460405163b81c645360e01b815260ff851660048201523360248201526001600160a01b039091169150819063b81c645390604401600060405180830381600087803b15801562000a4057600080fd5b505af115801562000a55573d6000803e3d6000fd5b50506040805133815260ff871660208201529081018590527f78d96294d2cf18d8e22a8ad08170a97b7b0fbb5679ae831255aed8508c124ac99250606001905060405180910390a150505050565b600080516020620038f883398151915262000abe8162000dcc565b60006001838154811062000ad65762000ad6620014d2565b60009182526020822001546040805163ec7fec8b60e01b815290516001600160a01b039092169350839263ec7fec8b9260048084019382900301818387803b1580156200044957600080fd5b6060600180548060200260200160405190810160405280929190818152602001828054801562000b7c57602002820191906000526020600020905b81546001600160a01b0316815260019091019060200180831162000b5d575b5050505050905090565b606060008060008060006001878154811062000ba65762000ba6620014d2565b60009182526020822001546040805163129e754360e21b815290516001600160a01b03909216935083928392634a79d50c9260048082019392918290030181865afa15801562000bfa573d6000803e3d6000fd5b505050506040513d6000823e601f3d908101601f1916820160405262000c249190810190620016b1565b816001600160a01b031663f132b62c6040518163ffffffff1660e01b8152600401602060405180830381865afa15801562000c63573d6000803e3d6000fd5b505050506040513d601f19601f8201168201806040525081019062000c89919062001731565b826001600160a01b031663eb37266b6040518163ffffffff1660e01b8152600401602060405180830381865afa15801562000cc8573d6000803e3d6000fd5b505050506040513d601f19601f8201168201806040525081019062000cee919062001731565b836001600160a01b0316631069143a6040518163ffffffff1660e01b8152600401602060405180830381865afa15801562000d2d573d6000803e3d6000fd5b505050506040513d601f19601f8201168201806040525081019062000d5391906200174b565b846001600160a01b031663631f98526040518163ffffffff1660e01b8152600401602060405180830381865afa15801562000d92573d6000803e3d6000fd5b505050506040513d601f19601f8201168201806040525081019062000db891906200176b565b939c929b5090995097509095509350505050565b62000dd8813362000ecb565b50565b62000de78282620005f4565b62000517576000828152602081815260408083206001600160a01b03851684529091529020805460ff1916600117905562000e1f3390565b6001600160a01b0316816001600160a01b0316837f2f8788117e7eff1d82e926ec794901d17c78024a50270940304540a733656f0d60405160405180910390a45050565b62000e6f8282620005f4565b1562000517576000828152602081815260408083206001600160a01b0385168085529252808320805460ff1916905551339285917ff6391f5c32d9c69d2a47ea670b442974b53935d1edc7fd64eb21e047a839171b9190a45050565b62000ed78282620005f4565b620005175762000ef2816001600160a01b0316601462000f3a565b62000eff83602062000f3a565b60405160200162000f129291906200178f565b60408051601f198184030181529082905262461bcd60e51b8252620005029160040162001808565b6060600062000f4b8360026200181d565b62000f589060026200183f565b67ffffffffffffffff81111562000f735762000f73620011a8565b6040519080825280601f01601f19166020018201604052801562000f9e576020820181803683370190505b509050600360fc1b8160008151811062000fbc5762000fbc620014d2565b60200101906001600160f81b031916908160001a905350600f60fb1b8160018151811062000fee5762000fee620014d2565b60200101906001600160f81b031916908160001a9053506000620010148460026200181d565b620010219060016200183f565b90505b6001811115620010a3576f181899199a1a9b1b9c1cb0b131b232b360811b85600f1660108110620010595762001059620014d2565b1a60f81b828281518110620010725762001072620014d2565b60200101906001600160f81b031916908160001a90535060049490941c936200109b8162001855565b905062001024565b508315620010f45760405162461bcd60e51b815260206004820181905260248201527f537472696e67733a20686578206c656e67746820696e73756666696369656e74604482015260640162000502565b9392505050565b612088806200187083390190565b6000602082840312156200111c57600080fd5b81356001600160e01b031981168114620010f457600080fd5b6000602082840312156200114857600080fd5b5035919050565b6001600160a01b038116811462000dd857600080fd5b600080604083850312156200117957600080fd5b8235915060208301356200118d816200114f565b809150509250929050565b60ff8116811462000dd857600080fd5b634e487b7160e01b600052604160045260246000fd5b604051601f8201601f1916810167ffffffffffffffff81118282101715620011ea57620011ea620011a8565b604052919050565b600067ffffffffffffffff8211156200120f576200120f620011a8565b50601f01601f191660200190565b600082601f8301126200122f57600080fd5b8135620012466200124082620011f2565b620011be565b8181528460208386010111156200125c57600080fd5b816020850160208301376000918101602001919091529392505050565b6000806000606084860312156200128f57600080fd5b833592506020840135620012a38162001198565b9150604084013567ffffffffffffffff811115620012c057600080fd5b620012ce868287016200121d565b9150509250925092565b60008060008060808587031215620012ef57600080fd5b843567ffffffffffffffff8111156200130757600080fd5b62001315878288016200121d565b94505060208501359250604085013591506060850135620013368162001198565b939692955090935050565b600080600080600060a086880312156200135a57600080fd5b85359450602086013567ffffffffffffffff8111156200137957600080fd5b62001387888289016200121d565b94505060408601359250606086013591506080860135620013a88162001198565b809150509295509295909350565b6020808252825182820181905260009190848201906040850190845b81811015620013f95783516001600160a01b031683529284019291840191600101620013d2565b50909695505050505050565b6000806000606084860312156200141b57600080fd5b8335925060208401356200142f8162001198565b929592945050506040919091013590565b60005b838110156200145d57818101518382015260200162001443565b50506000910152565b600081518084526200148081602086016020860162001440565b601f01601f19169290920160200192915050565b60a081526000620014a960a083018862001466565b905085602083015284604083015260ff8416606083015282151560808301529695505050505050565b634e487b7160e01b600052603260045260246000fd5b60ff83168152604060208201526000620009c5604083018462001466565b634e487b7160e01b600052601160045260246000fd5b60006001820162001531576200153162001506565b5060010190565b60c0815260006200154d60c083018962001466565b602083019790975250604081019490945260ff92909216606084015260808301526001600160a01b031660a090910152919050565b60a0815260006200159760a083018862001466565b905085602083015284604083015260ff841660608301528260808301529695505050505050565b608081526000620015d3608083018762001466565b602083019590955250604081019290925260ff16606090910152919050565b600060208083850312156200160657600080fd5b825167ffffffffffffffff808211156200161f57600080fd5b818501915085601f8301126200163457600080fd5b815181811115620016495762001649620011a8565b8060051b91506200165c848301620011be565b81815291830184019184810190888411156200167757600080fd5b938501935b83851015620016a5578451925062001694836200114f565b82825293850193908501906200167c565b98975050505050505050565b600060208284031215620016c457600080fd5b815167ffffffffffffffff811115620016dc57600080fd5b8201601f81018413620016ee57600080fd5b8051620016ff6200124082620011f2565b8181528560208385010111156200171557600080fd5b6200172882602083016020860162001440565b95945050505050565b6000602082840312156200174457600080fd5b5051919050565b6000602082840312156200175e57600080fd5b8151620010f48162001198565b6000602082840312156200177e57600080fd5b81518015158114620010f457600080fd5b7f416363657373436f6e74726f6c3a206163636f756e7420000000000000000000815260008351620017c981601785016020880162001440565b7001034b99036b4b9b9b4b733903937b6329607d1b6017918401918201528351620017fc81602884016020880162001440565b01602801949350505050565b602081526000620010f4602083018462001466565b60008160001904831182151516156200183a576200183a62001506565b500290565b80820180821115620003c457620003c462001506565b60008162001867576200186762001506565b50600019019056fe60a06040523480156200001157600080fd5b5060405162002088380380620020888339810160408190526200003491620001a7565b62000041600033620000b2565b6200006d7f6a74bd5720a9ba372841f356cf6872b1006d19dfc367da64ab98cf47824ed3c033620000b2565b60026200007b87826200034c565b506004949094556005929092556008805460ff191660ff929092169190911790556003556001600160a01b03166080525062000418565b620000be8282620000c2565b5050565b6000828152602081815260408083206001600160a01b038516845290915290205460ff16620000be576000828152602081815260408083206001600160a01b03851684529091529020805460ff191660011790556200011e3390565b6001600160a01b0316816001600160a01b0316837f2f8788117e7eff1d82e926ec794901d17c78024a50270940304540a733656f0d60405160405180910390a45050565b634e487b7160e01b600052604160045260246000fd5b805160ff811681146200018a57600080fd5b919050565b80516001600160a01b03811681146200018a57600080fd5b60008060008060008060c08789031215620001c157600080fd5b86516001600160401b0380821115620001d957600080fd5b818901915089601f830112620001ee57600080fd5b81518181111562000203576200020362000162565b604051601f8201601f19908116603f011681019083821181831017156200022e576200022e62000162565b81604052828152602093508c848487010111156200024b57600080fd5b600091505b828210156200026f578482018401518183018501529083019062000250565b6000848483010152809a505050508089015196505050604087015193506200029a6060880162000178565b925060808701519150620002b160a088016200018f565b90509295509295509295565b600181811c90821680620002d257607f821691505b602082108103620002f357634e487b7160e01b600052602260045260246000fd5b50919050565b601f8211156200034757600081815260208120601f850160051c81016020861015620003225750805b601f850160051c820191505b8181101562000343578281556001016200032e565b5050505b505050565b81516001600160401b0381111562000368576200036862000162565b6200038081620003798454620002bd565b84620002f9565b602080601f831160018114620003b857600084156200039f5750858301515b600019600386901b1c1916600185901b17855562000343565b600085815260208120601f198616915b82811015620003e957888601518255948401946001909101908401620003c8565b5085821015620004085787850151600019600388901b60f8161c191681555b5050505050600190811b01905550565b608051611c3f62000449600039600081816104260152818161087001528181610aa60152610cb90152611c3f6000f3fe608060405234801561001057600080fd5b50600436106101da5760003560e01c80639346a95e11610104578063da58c7d9116100a2578063eb37266b11610071578063eb37266b14610407578063ec7fec8b14610410578063f132b62c14610418578063fc0c546a1461042157600080fd5b8063da58c7d9146103a4578063e11311b6146103cf578063e2feebce146103e2578063eb316ef9146103f557600080fd5b8063b81c6453116100de578063b81c645314610361578063c003003214610374578063c2b6b58c1461037d578063d547741f1461039157600080fd5b80639346a95e1461033c578063a217fddf14610351578063a97b8b4d1461035957600080fd5b806332ced3161161017c5780635591dc6b1161014b5780635591dc6b146102ed578063631f98521461030d5780637e1c0c091461032057806391d148541461032957600080fd5b806332ced316146102925780633514898b146102b257806336568abe146102d25780634a79d50c146102e557600080fd5b80631715acb9116101b85780631715acb91461023d578063248a9ca3146102475780632c4c7f8c1461026a5780632f2ff15d1461027f57600080fd5b806301ffc9a7146101df5780630d15fd77146102075780631069143a1461021e575b600080fd5b6101f26101ed36600461153d565b610448565b60405190151581526020015b60405180910390f35b61021060065481565b6040519081526020016101fe565b60085461022b9060ff1681565b60405160ff90911681526020016101fe565b61024561047f565b005b610210610255366004611567565b60009081526020819052604090206001015490565b610210600080516020611bea83398151915281565b61024561028d36600461159c565b6105a9565b6102a56102a03660046115d9565b6105d3565b6040516101fe9190611644565b6102106102c03660046115d9565b600a6020526000908152604090205481565b6102456102e036600461159c565b61066d565b6102a56106eb565b6102106102fb366004611657565b60096020526000908152604090205481565b6008546101f29062010000900460ff1681565b61021060075481565b6101f261033736600461159c565b6106f8565b610344610721565b6040516101fe9190611672565b610210600081565b610245610783565b61024561036f3660046116bf565b6109b9565b61021060035481565b6008546101f2906301000000900460ff1681565b61024561039f36600461159c565b610dc5565b6103b76103b2366004611567565b610dea565b6040516001600160a01b0390911681526020016101fe565b6102456103dd36600461178c565b610e14565b6102456103f03660046117da565b610f82565b60085461022b90610100900460ff1681565b61021060055481565b6102456110b9565b61021060045481565b6103b77f000000000000000000000000000000000000000000000000000000000000000081565b60006001600160e01b03198216637965db0b60e01b148061047957506301ffc9a760e01b6001600160e01b03198316145b92915050565b600080516020611bea833981519152610497816111db565b60085460009062010000900460ff16156104cc5760405162461bcd60e51b81526004016104c39061183b565b60405180910390fd5b60085462010000900460ff1615610550576004544290158015906104f257506000600554115b8015610502575060055460045411155b801561050f575060055481105b801561051c575060045481115b801561053257506008546301000000900460ff16155b61054e5760405162461bcd60e51b81526004016104c390611868565b505b6008805462ff0000191662010000908117918290556040517f01ad4ead72182812fe731434ad17700ac4ead03c904102484e03ef91889f4f129261059d92900460ff161515815260200190565b60405180910390a15050565b6000828152602081905260409020600101546105c4816111db565b6105ce83836111e8565b505050565b600b60205260009081526040902080546105ec9061189f565b80601f01602080910402602001604051908101604052809291908181526020018280546106189061189f565b80156106655780601f1061063a57610100808354040283529160200191610665565b820191906000526020600020905b81548152906001019060200180831161064857829003601f168201915b505050505081565b6001600160a01b03811633146106dd5760405162461bcd60e51b815260206004820152602f60248201527f416363657373436f6e74726f6c3a2063616e206f6e6c792072656e6f756e636560448201526e103937b632b9903337b91039b2b63360891b60648201526084016104c3565b6106e7828261126c565b5050565b600280546105ec9061189f565b6000918252602082815260408084206001600160a01b0393909316845291905290205460ff1690565b6060600180548060200260200160405190810160405280929190818152602001828054801561077957602002820191906000526020600020905b81546001600160a01b0316815260019091019060200180831161075b575b5050505050905090565b600080516020611bea83398151915261079b816111db565b60085460019062010000900460ff16151581146107ca5760405162461bcd60e51b81526004016104c39061183b565b60085462010000900460ff161561084e576004544290158015906107f057506000600554115b8015610800575060055460045411155b801561080d575060055481105b801561081a575060045481115b801561083057506008546301000000900460ff16155b61084c5760405162461bcd60e51b81526004016104c390611868565b505b6008805463ff0000001916630100000017905560005b600154811015610979577f00000000000000000000000000000000000000000000000000000000000000006001600160a01b0316633648fd7a600183815481106108b0576108b06118d9565b9060005260206000200160009054906101000a90046001600160a01b031660096000600186815481106108e5576108e56118d9565b6000918252602080832091909101546001600160a01b039081168452908301939093526040918201902054905160e085901b6001600160e01b03191681529290911660048301526024820152604401600060405180830381600087803b15801561094e57600080fd5b505af1158015610962573d6000803e3d6000fd5b50505050808061097190611905565b915050610864565b50600854604051630100000090910460ff16151581527f5a8d69a26a22b1030a9d3fe8bfd44d959d8d3bca999174a6682e91d30c2573709060200161059d565b600080516020611bea8339815191526109d1816111db565b60085460019062010000900460ff1615158114610a005760405162461bcd60e51b81526004016104c39061183b565b60085462010000900460ff1615610a8457600454429015801590610a2657506000600554115b8015610a36575060055460045411155b8015610a43575060055481105b8015610a50575060045481115b8015610a6657506008546301000000900460ff16155b610a825760405162461bcd60e51b81526004016104c390611868565b505b6040516370a0823160e01b81526001600160a01b0384811660048301526000917f0000000000000000000000000000000000000000000000000000000000000000909116906370a0823190602401602060405180830381865afa158015610aef573d6000803e3d6000fd5b505050506040513d601f19601f82011682018060405250810190610b13919061191e565b905060008111610b705760405162461bcd60e51b815260206004820152602260248201527f596f75206d75737420766f746520666f72206174206c65617374203120746f6b60448201526132b760f11b60648201526084016104c3565b6001600160a01b0384166000908152600c602052604090205460ff1615610bd25760405162461bcd60e51b8152602060048201526016602482015275165bdd481a185d9948185b1c9958591e481d9bdd195960521b60448201526064016104c3565b6001600160a01b0384166000908152600c60205260409020805460ff1916600117905560085460ff9081169086161115610c3f5760405162461bcd60e51b815260206004820152600e60248201526d24b73b30b634b21037b83a34b7b760911b60448201526064016104c3565b6001600160a01b03841660009081526009602052604081208054839290610c67908490611937565b909155505060ff85166000908152600a602052604081208054839290610c8e908490611937565b90915550506040516308a0e01360e21b81526001600160a01b038581166004830152602482018390527f00000000000000000000000000000000000000000000000000000000000000001690632283804c90604401600060405180830381600087803b158015610cfd57600080fd5b505af1158015610d11573d6000803e3d6000fd5b505060018054808201825560009182527fb10e2d527612073b26eecdfd717e6a320cf44b4afac2b0732d9fcbe2b7fa0cf60180546001600160a01b0319166001600160a01b0389161790556006805493509150610d6d83611905565b9091555050604080516001600160a01b038616815260ff871660208201529081018290527f78d96294d2cf18d8e22a8ad08170a97b7b0fbb5679ae831255aed8508c124ac99060600160405180910390a15050505050565b600082815260208190526040902060010154610de0816111db565b6105ce838361126c565b60018181548110610dfa57600080fd5b6000918252602090912001546001600160a01b0316905081565b600080516020611bea833981519152610e2c816111db565b60085460009062010000900460ff1615610e585760405162461bcd60e51b81526004016104c39061183b565b60085462010000900460ff1615610edc57600454429015801590610e7e57506000600554115b8015610e8e575060055460045411155b8015610e9b575060055481105b8015610ea8575060045481115b8015610ebe57506008546301000000900460ff16155b610eda5760405162461bcd60e51b81526004016104c390611868565b505b60085460ff9081169085161115610f265760405162461bcd60e51b815260206004820152600e60248201526d24b73b30b634b21037b83a34b7b760911b60448201526064016104c3565b60ff84166000908152600b60205260409020610f428482611998565b507f8c409f72ef779aa1a706329da10651834aca79d282ca233880d1f0ef501029998484604051610f74929190611a58565b60405180910390a150505050565b600080516020611bea833981519152610f9a816111db565b60085460009062010000900460ff1615610fc65760405162461bcd60e51b81526004016104c39061183b565b60085462010000900460ff161561104a57600454429015801590610fec57506000600554115b8015610ffc575060055460045411155b8015611009575060055481105b8015611016575060045481115b801561102c57506008546301000000900460ff16155b6110485760405162461bcd60e51b81526004016104c390611868565b505b60026110568782611998565b50600485905560058490556008805460ff191660ff85169081179091556040517f5808b911ab7ea2bd920080a30c20c71ec9d20090ee7b35bcc9c887ce1f5c4c4e916110a9916002918991899190611a7c565b60405180910390a1505050505050565b600080516020611bea8339815191526110d1816111db565b60085460019062010000900460ff16151581146111005760405162461bcd60e51b81526004016104c39061183b565b60085462010000900460ff16156111845760045442901580159061112657506000600554115b8015611136575060055460045411155b8015611143575060055481105b8015611150575060045481115b801561116657506008546301000000900460ff16155b6111825760405162461bcd60e51b81526004016104c390611868565b505b61118c6112d1565b6008805461ff00191661010060ff93841681029190911791829055604051910490911681527f1bb3adaddfda2990ec021a2a72fed999cc9efaf1163523e6d7f765d4797d14c09060200161059d565b6111e58133611336565b50565b6111f282826106f8565b6106e7576000828152602081815260408083206001600160a01b03851684529091529020805460ff191660011790556112283390565b6001600160a01b0316816001600160a01b0316837f2f8788117e7eff1d82e926ec794901d17c78024a50270940304540a733656f0d60405160405180910390a45050565b61127682826106f8565b156106e7576000828152602081815260408083206001600160a01b0385168085529252808320805460ff1916905551339285917ff6391f5c32d9c69d2a47ea670b442974b53935d1edc7fd64eb21e047a839171b9190a45050565b6000808060015b60085460ff9081169082161161132e5760ff81166000908152600a602052604090205482101561131c5760ff81166000908152600a60205260409020549092509050815b8061132681611b1f565b9150506112d8565b509092915050565b61134082826106f8565b6106e757611358816001600160a01b0316601461139a565b61136383602061139a565b604051602001611374929190611b3e565b60408051601f198184030181529082905262461bcd60e51b82526104c391600401611644565b606060006113a9836002611bb3565b6113b4906002611937565b67ffffffffffffffff8111156113cc576113cc6116e9565b6040519080825280601f01601f1916602001820160405280156113f6576020820181803683370190505b509050600360fc1b81600081518110611411576114116118d9565b60200101906001600160f81b031916908160001a905350600f60fb1b81600181518110611440576114406118d9565b60200101906001600160f81b031916908160001a9053506000611464846002611bb3565b61146f906001611937565b90505b60018111156114e7576f181899199a1a9b1b9c1cb0b131b232b360811b85600f16601081106114a3576114a36118d9565b1a60f81b8282815181106114b9576114b96118d9565b60200101906001600160f81b031916908160001a90535060049490941c936114e081611bd2565b9050611472565b5083156115365760405162461bcd60e51b815260206004820181905260248201527f537472696e67733a20686578206c656e67746820696e73756666696369656e7460448201526064016104c3565b9392505050565b60006020828403121561154f57600080fd5b81356001600160e01b03198116811461153657600080fd5b60006020828403121561157957600080fd5b5035919050565b80356001600160a01b038116811461159757600080fd5b919050565b600080604083850312156115af57600080fd5b823591506115bf60208401611580565b90509250929050565b803560ff8116811461159757600080fd5b6000602082840312156115eb57600080fd5b611536826115c8565b60005b8381101561160f5781810151838201526020016115f7565b50506000910152565b600081518084526116308160208601602086016115f4565b601f01601f19169290920160200192915050565b6020815260006115366020830184611618565b60006020828403121561166957600080fd5b61153682611580565b6020808252825182820181905260009190848201906040850190845b818110156116b35783516001600160a01b03168352928401929184019160010161168e565b50909695505050505050565b600080604083850312156116d257600080fd5b6116db836115c8565b91506115bf60208401611580565b634e487b7160e01b600052604160045260246000fd5b600082601f83011261171057600080fd5b813567ffffffffffffffff8082111561172b5761172b6116e9565b604051601f8301601f19908116603f01168101908282118183101715611753576117536116e9565b8160405283815286602085880101111561176c57600080fd5b836020870160208301376000602085830101528094505050505092915050565b6000806040838503121561179f57600080fd5b6117a8836115c8565b9150602083013567ffffffffffffffff8111156117c457600080fd5b6117d0858286016116ff565b9150509250929050565b600080600080608085870312156117f057600080fd5b843567ffffffffffffffff81111561180757600080fd5b611813878288016116ff565b9450506020850135925060408501359150611830606086016115c8565b905092959194509250565b60208082526013908201527210985b1b1bdd081a5cc81b9bdd081d985b1a59606a1b604082015260600190565b60208082526018908201527f546869732042616c6c6f74206973206e6f742056616c69640000000000000000604082015260600190565b600181811c908216806118b357607f821691505b6020821081036118d357634e487b7160e01b600052602260045260246000fd5b50919050565b634e487b7160e01b600052603260045260246000fd5b634e487b7160e01b600052601160045260246000fd5b600060018201611917576119176118ef565b5060010190565b60006020828403121561193057600080fd5b5051919050565b80820180821115610479576104796118ef565b601f8211156105ce57600081815260208120601f850160051c810160208610156119715750805b601f850160051c820191505b818110156119905782815560010161197d565b505050505050565b815167ffffffffffffffff8111156119b2576119b26116e9565b6119c6816119c0845461189f565b8461194a565b602080601f8311600181146119fb57600084156119e35750858301515b600019600386901b1c1916600185901b178555611990565b600085815260208120601f198616915b82811015611a2a57888601518255948401946001909101908401611a0b565b5085821015611a485787850151600019600388901b60f8161c191681555b5050505050600190811b01905550565b60ff83168152604060208201526000611a746040830184611618565b949350505050565b608081526000808654611a8e8161189f565b80608086015260a0600180841660008114611ab05760018114611aca57611afb565b60ff1985168884015283151560051b880183019550611afb565b8b60005260208060002060005b86811015611af25781548b8201870152908401908201611ad7565b8a018501975050505b5050505050602083019590955250604081019290925260ff16606090910152919050565b600060ff821660ff8103611b3557611b356118ef565b60010192915050565b7f416363657373436f6e74726f6c3a206163636f756e7420000000000000000000815260008351611b768160178501602088016115f4565b7001034b99036b4b9b9b4b733903937b6329607d1b6017918401918201528351611ba78160288401602088016115f4565b01602801949350505050565b6000816000190483118215151615611bcd57611bcd6118ef565b500290565b600081611be157611be16118ef565b50600019019056fe6a74bd5720a9ba372841f356cf6872b1006d19dfc367da64ab98cf47824ed3c0a26469706673582212209856359289d96c9d85757d672b648f1a8449061df2591e9f0bf9b2e478614fe964736f6c634300081000336a74bd5720a9ba372841f356cf6872b1006d19dfc367da64ab98cf47824ed3c0a26469706673582212205fd2a6e4146424b890c49745c57c88baac758b2d9ae0a1bbe1b773674838f0b264736f6c63430008100033",
  "linkReferences": {},
  "deployedLinkReferences": {}
}