{
  "_format": "hh-sol-artifact-1",
  "contractName": "BallotFactory",
  "sourceName": "contracts/BallotFactory.sol",
  "abi": [
    {
      "inputs": [
        {
          "internalType": "address",
          "name": "tokenAddress",
          "type": "address"
        }
      ],
      "stateMutability": "nonpayable",
      "type": "constructor"
    },
    {
      "anonymous": false,
      "inputs": [
        {
          "indexed": true,
          "internalType": "address",
          "name": "ballotAddress",
          "type": "address"
        },
        {
          "indexed": false,
          "internalType": "string",
          "name": "title",
          "type": "string"
        },
        {
          "indexed": false,
          "internalType": "uint256",
          "name": "dateToStart",
          "type": "uint256"
        },
        {
          "indexed": false,
          "internalType": "uint256",
          "name": "dateToEnd",
          "type": "uint256"
        },
        {
          "indexed": false,
          "internalType": "uint8",
          "name": "options",
          "type": "uint8"
        },
        {
          "indexed": false,
          "internalType": "uint256",
          "name": "ballotCount",
          "type": "uint256"
        }
      ],
      "name": "BallotCreated",
      "type": "event"
    },
    {
      "anonymous": false,
      "inputs": [
        {
          "indexed": true,
          "internalType": "bytes32",
          "name": "role",
          "type": "bytes32"
        },
        {
          "indexed": true,
          "internalType": "bytes32",
          "name": "previousAdminRole",
          "type": "bytes32"
        },
        {
          "indexed": true,
          "internalType": "bytes32",
          "name": "newAdminRole",
          "type": "bytes32"
        }
      ],
      "name": "RoleAdminChanged",
      "type": "event"
    },
    {
      "anonymous": false,
      "inputs": [
        {
          "indexed": true,
          "internalType": "bytes32",
          "name": "role",
          "type": "bytes32"
        },
        {
          "indexed": true,
          "internalType": "address",
          "name": "account",
          "type": "address"
        },
        {
          "indexed": true,
          "internalType": "address",
          "name": "sender",
          "type": "address"
        }
      ],
      "name": "RoleGranted",
      "type": "event"
    },
    {
      "anonymous": false,
      "inputs": [
        {
          "indexed": true,
          "internalType": "bytes32",
          "name": "role",
          "type": "bytes32"
        },
        {
          "indexed": true,
          "internalType": "address",
          "name": "account",
          "type": "address"
        },
        {
          "indexed": true,
          "internalType": "address",
          "name": "sender",
          "type": "address"
        }
      ],
      "name": "RoleRevoked",
      "type": "event"
    },
    {
      "anonymous": false,
      "inputs": [
        {
          "indexed": false,
          "internalType": "address",
          "name": "voter",
          "type": "address"
        },
        {
          "indexed": false,
          "internalType": "uint8",
          "name": "option",
          "type": "uint8"
        }
      ],
      "name": "Voted",
      "type": "event"
    },
    {
      "anonymous": false,
      "inputs": [
        {
          "indexed": false,
          "internalType": "address",
          "name": "voter",
          "type": "address"
        },
        {
          "indexed": false,
          "internalType": "uint8",
          "name": "option",
          "type": "uint8"
        }
      ],
      "name": "VotedRemaining",
      "type": "event"
    },
    {
      "inputs": [],
      "name": "DEFAULT_ADMIN_ROLE",
      "outputs": [
        {
          "internalType": "bytes32",
          "name": "",
          "type": "bytes32"
        }
      ],
      "stateMutability": "view",
      "type": "function"
    },
    {
      "inputs": [],
      "name": "TEAM_MEMBER",
      "outputs": [
        {
          "internalType": "bytes32",
          "name": "",
          "type": "bytes32"
        }
      ],
      "stateMutability": "view",
      "type": "function"
    },
    {
      "inputs": [
        {
          "internalType": "uint256",
          "name": "ballotID",
          "type": "uint256"
        },
        {
          "internalType": "uint8",
          "name": "option",
          "type": "uint8"
        },
        {
          "internalType": "string",
          "name": "title",
          "type": "string"
        }
      ],
      "name": "addTitleToOption",
      "outputs": [],
      "stateMutability": "nonpayable",
      "type": "function"
    },
    {
      "inputs": [],
      "name": "ballotCount",
      "outputs": [
        {
          "internalType": "uint256",
          "name": "",
          "type": "uint256"
        }
      ],
      "stateMutability": "view",
      "type": "function"
    },
    {
      "inputs": [
        {
          "internalType": "uint256",
          "name": "",
          "type": "uint256"
        }
      ],
      "name": "ballots",
      "outputs": [
        {
          "internalType": "address",
          "name": "",
          "type": "address"
        }
      ],
      "stateMutability": "view",
      "type": "function"
    },
    {
      "inputs": [
        {
          "internalType": "uint256",
          "name": "ballotID",
          "type": "uint256"
        }
      ],
      "name": "closeABallot",
      "outputs": [],
      "stateMutability": "nonpayable",
      "type": "function"
    },
    {
      "inputs": [
        {
          "internalType": "string",
          "name": "title",
          "type": "string"
        },
        {
          "internalType": "uint256",
          "name": "dateToStart",
          "type": "uint256"
        },
        {
          "internalType": "uint256",
          "name": "dateToEnd",
          "type": "uint256"
        },
        {
          "internalType": "uint8",
          "name": "options",
          "type": "uint8"
        }
      ],
      "name": "createBallot",
      "outputs": [],
      "stateMutability": "nonpayable",
      "type": "function"
    },
    {
      "inputs": [
        {
          "internalType": "uint256",
          "name": "ballotID",
          "type": "uint256"
        },
        {
          "internalType": "string",
          "name": "title",
          "type": "string"
        },
        {
          "internalType": "uint256",
          "name": "dateToStart",
          "type": "uint256"
        },
        {
          "internalType": "uint256",
          "name": "dateToEnd",
          "type": "uint256"
        },
        {
          "internalType": "uint8",
          "name": "options",
          "type": "uint8"
        }
      ],
      "name": "editBallot",
      "outputs": [],
      "stateMutability": "nonpayable",
      "type": "function"
    },
    {
      "inputs": [
        {
          "internalType": "uint256",
          "name": "ballotID",
          "type": "uint256"
        }
      ],
      "name": "getBallot",
      "outputs": [
        {
          "internalType": "string",
          "name": "title",
          "type": "string"
        },
        {
          "internalType": "uint256",
          "name": "dateToStart",
          "type": "uint256"
        },
        {
          "internalType": "uint256",
          "name": "dateToEnd",
          "type": "uint256"
        },
        {
          "internalType": "uint8",
          "name": "options",
          "type": "uint8"
        },
        {
          "internalType": "bool",
          "name": "isSealed",
          "type": "bool"
        }
      ],
      "stateMutability": "view",
      "type": "function"
    },
    {
      "inputs": [
        {
          "internalType": "bytes32",
          "name": "role",
          "type": "bytes32"
        }
      ],
      "name": "getRoleAdmin",
      "outputs": [
        {
          "internalType": "bytes32",
          "name": "",
          "type": "bytes32"
        }
      ],
      "stateMutability": "view",
      "type": "function"
    },
    {
      "inputs": [
        {
          "internalType": "bytes32",
          "name": "role",
          "type": "bytes32"
        },
        {
          "internalType": "address",
          "name": "account",
          "type": "address"
        }
      ],
      "name": "grantRole",
      "outputs": [],
      "stateMutability": "nonpayable",
      "type": "function"
    },
    {
      "inputs": [
        {
          "internalType": "bytes32",
          "name": "role",
          "type": "bytes32"
        },
        {
          "internalType": "address",
          "name": "account",
          "type": "address"
        }
      ],
      "name": "hasRole",
      "outputs": [
        {
          "internalType": "bool",
          "name": "",
          "type": "bool"
        }
      ],
      "stateMutability": "view",
      "type": "function"
    },
    {
      "inputs": [
        {
          "internalType": "bytes32",
          "name": "role",
          "type": "bytes32"
        },
        {
          "internalType": "address",
          "name": "account",
          "type": "address"
        }
      ],
      "name": "renounceRole",
      "outputs": [],
      "stateMutability": "nonpayable",
      "type": "function"
    },
    {
      "inputs": [
        {
          "internalType": "bytes32",
          "name": "role",
          "type": "bytes32"
        },
        {
          "internalType": "address",
          "name": "account",
          "type": "address"
        }
      ],
      "name": "revokeRole",
      "outputs": [],
      "stateMutability": "nonpayable",
      "type": "function"
    },
    {
      "inputs": [
        {
          "internalType": "uint256",
          "name": "ballotID",
          "type": "uint256"
        }
      ],
      "name": "sealABallot",
      "outputs": [],
      "stateMutability": "nonpayable",
      "type": "function"
    },
    {
      "inputs": [
        {
          "internalType": "bytes4",
          "name": "interfaceId",
          "type": "bytes4"
        }
      ],
      "name": "supportsInterface",
      "outputs": [
        {
          "internalType": "bool",
          "name": "",
          "type": "bool"
        }
      ],
      "stateMutability": "view",
      "type": "function"
    },
    {
      "inputs": [],
      "name": "token",
      "outputs": [
        {
          "internalType": "address",
          "name": "",
          "type": "address"
        }
      ],
      "stateMutability": "view",
      "type": "function"
    },
    {
      "inputs": [],
      "name": "viewAllBallotsAddresses",
      "outputs": [
        {
          "internalType": "address[]",
          "name": "",
          "type": "address[]"
        }
      ],
      "stateMutability": "view",
      "type": "function"
    },
    {
      "inputs": [
        {
          "internalType": "uint256",
          "name": "ballotID",
          "type": "uint256"
        }
      ],
      "name": "viewVoters",
      "outputs": [
        {
          "internalType": "address[]",
          "name": "",
          "type": "address[]"
        }
      ],
      "stateMutability": "view",
      "type": "function"
    },
    {
      "inputs": [
        {
          "internalType": "uint256",
          "name": "ballotID",
          "type": "uint256"
        },
        {
          "internalType": "uint8",
          "name": "option",
          "type": "uint8"
        }
      ],
      "name": "vote",
      "outputs": [],
      "stateMutability": "nonpayable",
      "type": "function"
    }
  ],
  "bytecode": "0x60a06040523480156200001157600080fd5b506040516200368f3803806200368f83398101604081905262000034916200012f565b620000416000336200007f565b6200006d7f6a74bd5720a9ba372841f356cf6872b1006d19dfc367da64ab98cf47824ed3c0336200007f565b6001600160a01b031660805262000161565b6200008b82826200008f565b5050565b6000828152602081815260408083206001600160a01b038516845290915290205460ff166200008b576000828152602081815260408083206001600160a01b03851684529091529020805460ff19166001179055620000eb3390565b6001600160a01b0316816001600160a01b0316837f2f8788117e7eff1d82e926ec794901d17c78024a50270940304540a733656f0d60405160405180910390a45050565b6000602082840312156200014257600080fd5b81516001600160a01b03811681146200015a57600080fd5b9392505050565b6080516135046200018b6000396000818161034d0152818161070401526107c801526135046000f3fe60806040523480156200001157600080fd5b5060043610620001455760003560e01c80639fb0505011620000bb578063d5c3bed5116200007a578063d5c3bed514620002d6578063d7c0be1d14620002ed578063f62508a11462000313578063f9d5ee75146200031d578063fc0c546a146200034757600080fd5b80639fb05050146200027e578063a217fddf1462000295578063b27af135146200029e578063c003003214620002b5578063d547741f14620002bf57600080fd5b806336568abe116200010857806336568abe14620001f257806344427acd14620002095780635c632b38146200022057806391d148541462000250578063943e8216146200026757600080fd5b806301ffc9a7146200014a57806303242c031462000176578063248a9ca3146200018f5780632c4c7f8c14620001c45780632f2ff15d14620001db575b600080fd5b620001616200015b3660046200105e565b6200036f565b60405190151581526020015b60405180910390f35b6200018d620001873660046200108a565b620003a7565b005b620001b5620001a03660046200108a565b60009081526020819052604090206001015490565b6040519081526020016200016d565b620001b5600080516020620034af83398151915281565b6200018d620001ec366004620010ba565b62000444565b6200018d62000203366004620010ba565b62000472565b6200018d6200021a366004620011ce565b620004f8565b62000237620002313660046200108a565b620005a6565b6040516001600160a01b0390911681526020016200016d565b6200016162000261366004620010ba565b620005d1565b6200018d620002783660046200122d565b620005fa565b6200018d6200028f36600462001255565b620006c7565b620001b5600081565b6200018d620002af366004620012be565b6200087b565b620001b560025481565b6200018d620002d0366004620010ba565b6200092f565b6200018d620002e73660046200108a565b62000958565b62000304620002fe3660046200108a565b620009d7565b6040516200016d919062001333565b6200030462000a77565b620003346200032e3660046200108a565b62000adb565b6040516200016d959493929190620013d6565b620002377f000000000000000000000000000000000000000000000000000000000000000081565b60006001600160e01b03198216637965db0b60e01b1480620003a157506301ffc9a760e01b6001600160e01b03198316145b92915050565b600080516020620034af833981519152620003c28162000d21565b600060018381548110620003da57620003da62001414565b60009182526020822001546040805163a97b8b4d60e01b815290516001600160a01b039092169350839263a97b8b4d9260048084019382900301818387803b1580156200042657600080fd5b505af11580156200043b573d6000803e3d6000fd5b50505050505050565b600082815260208190526040902060010154620004618162000d21565b6200046d838362000d30565b505050565b6001600160a01b0381163314620004e85760405162461bcd60e51b815260206004820152602f60248201527f416363657373436f6e74726f6c3a2063616e206f6e6c792072656e6f756e636560448201526e103937b632b9903337b91039b2b63360891b60648201526084015b60405180910390fd5b620004f4828262000db8565b5050565b600080516020620034af833981519152620005138162000d21565b6000600185815481106200052b576200052b62001414565b60009182526020909120015460405163708988db60e11b81526001600160a01b039091169150819063e11311b6906200056b90879087906004016200142a565b600060405180830381600087803b1580156200058657600080fd5b505af11580156200059b573d6000803e3d6000fd5b505050505050505050565b60018181548110620005b757600080fd5b6000918252602090912001546001600160a01b0316905081565b6000918252602082815260408084206001600160a01b0393909316845291905290205460ff1690565b60006001838154811062000612576200061262001414565b60009182526020909120015460405163b81c645360e01b815260ff841660048201523360248201526001600160a01b039091169150819063b81c645390604401600060405180830381600087803b1580156200066d57600080fd5b505af115801562000682573d6000803e3d6000fd5b50506040805133815260ff861660208201527f14075e33dffdc00c1fcaf75d0f86d667170be57fb566b12b41b499e5fa53b125935001905060405180910390a1505050565b600080516020620034af833981519152620006e28162000d21565b60028054906000620006f4836200145e565b91905055506000858585856002547f0000000000000000000000000000000000000000000000000000000000000000604051620007319062001050565b62000742969594939291906200147a565b604051809103906000f0801580156200075f573d6000803e3d6000fd5b506001805480820182556000919091527fb10e2d527612073b26eecdfd717e6a320cf44b4afac2b0732d9fcbe2b7fa0cf60180546001600160a01b0319166001600160a01b03838116918217909255604051633eb2b5ad60e01b815260048101919091529192507f00000000000000000000000000000000000000000000000000000000000000001690633eb2b5ad90602401600060405180830381600087803b1580156200080d57600080fd5b505af115801562000822573d6000803e3d6000fd5b50505050806001600160a01b03167fc32dd25cec911afb469af973d17ef0da533d17efc4350f3a7d56240a84c00320878787876002546040516200086b959493929190620014c4565b60405180910390a2505050505050565b600080516020620034af833981519152620008968162000d21565b600060018781548110620008ae57620008ae62001414565b60009182526020909120015460405163717f75e760e11b81526001600160a01b039091169150819063e2feebce90620008f290899089908990899060040162001500565b600060405180830381600087803b1580156200090d57600080fd5b505af115801562000922573d6000803e3d6000fd5b5050505050505050505050565b6000828152602081905260409020600101546200094c8162000d21565b6200046d838362000db8565b600080516020620034af833981519152620009738162000d21565b6000600183815481106200098b576200098b62001414565b600091825260208220015460408051631715acb960e01b815290516001600160a01b0390921693508392631715acb99260048084019382900301818387803b1580156200042657600080fd5b6060600060018381548110620009f157620009f162001414565b6000918252602082200154604080516349a354af60e11b815290516001600160a01b03909216935083928392639346a95e9260048082019392918290030181865afa15801562000a45573d6000803e3d6000fd5b505050506040513d6000823e601f3d908101601f1916820160405262000a6f919081019062001534565b949350505050565b6060600180548060200260200160405190810160405280929190818152602001828054801562000ad157602002820191906000526020600020905b81546001600160a01b0316815260019091019060200180831162000ab2575b5050505050905090565b606060008060008060006001878154811062000afb5762000afb62001414565b60009182526020822001546040805163129e754360e21b815290516001600160a01b03909216935083928392634a79d50c9260048082019392918290030181865afa15801562000b4f573d6000803e3d6000fd5b505050506040513d6000823e601f3d908101601f1916820160405262000b799190810190620015f3565b816001600160a01b031663f132b62c6040518163ffffffff1660e01b8152600401602060405180830381865afa15801562000bb8573d6000803e3d6000fd5b505050506040513d601f19601f8201168201806040525081019062000bde919062001673565b826001600160a01b031663eb37266b6040518163ffffffff1660e01b8152600401602060405180830381865afa15801562000c1d573d6000803e3d6000fd5b505050506040513d601f19601f8201168201806040525081019062000c43919062001673565b836001600160a01b0316631069143a6040518163ffffffff1660e01b8152600401602060405180830381865afa15801562000c82573d6000803e3d6000fd5b505050506040513d601f19601f8201168201806040525081019062000ca891906200168d565b846001600160a01b031663631f98526040518163ffffffff1660e01b8152600401602060405180830381865afa15801562000ce7573d6000803e3d6000fd5b505050506040513d601f19601f8201168201806040525081019062000d0d9190620016ad565b939c929b5090995097509095509350505050565b62000d2d813362000e20565b50565b62000d3c8282620005d1565b620004f4576000828152602081815260408083206001600160a01b03851684529091529020805460ff1916600117905562000d743390565b6001600160a01b0316816001600160a01b0316837f2f8788117e7eff1d82e926ec794901d17c78024a50270940304540a733656f0d60405160405180910390a45050565b62000dc48282620005d1565b15620004f4576000828152602081815260408083206001600160a01b0385168085529252808320805460ff1916905551339285917ff6391f5c32d9c69d2a47ea670b442974b53935d1edc7fd64eb21e047a839171b9190a45050565b62000e2c8282620005d1565b620004f45762000e47816001600160a01b0316601462000e8f565b62000e5483602062000e8f565b60405160200162000e67929190620016d1565b60408051601f198184030181529082905262461bcd60e51b8252620004df916004016200174a565b6060600062000ea08360026200175f565b62000ead90600262001779565b67ffffffffffffffff81111562000ec85762000ec8620010fd565b6040519080825280601f01601f19166020018201604052801562000ef3576020820181803683370190505b509050600360fc1b8160008151811062000f115762000f1162001414565b60200101906001600160f81b031916908160001a905350600f60fb1b8160018151811062000f435762000f4362001414565b60200101906001600160f81b031916908160001a905350600062000f698460026200175f565b62000f7690600162001779565b90505b600181111562000ff8576f181899199a1a9b1b9c1cb0b131b232b360811b85600f166010811062000fae5762000fae62001414565b1a60f81b82828151811062000fc75762000fc762001414565b60200101906001600160f81b031916908160001a90535060049490941c9362000ff0816200178f565b905062000f79565b508315620010495760405162461bcd60e51b815260206004820181905260248201527f537472696e67733a20686578206c656e67746820696e73756666696369656e746044820152606401620004df565b9392505050565b611d0580620017aa83390190565b6000602082840312156200107157600080fd5b81356001600160e01b0319811681146200104957600080fd5b6000602082840312156200109d57600080fd5b5035919050565b6001600160a01b038116811462000d2d57600080fd5b60008060408385031215620010ce57600080fd5b823591506020830135620010e281620010a4565b809150509250929050565b60ff8116811462000d2d57600080fd5b634e487b7160e01b600052604160045260246000fd5b604051601f8201601f1916810167ffffffffffffffff811182821017156200113f576200113f620010fd565b604052919050565b600067ffffffffffffffff821115620011645762001164620010fd565b50601f01601f191660200190565b600082601f8301126200118457600080fd5b81356200119b620011958262001147565b62001113565b818152846020838601011115620011b157600080fd5b816020850160208301376000918101602001919091529392505050565b600080600060608486031215620011e457600080fd5b833592506020840135620011f881620010ed565b9150604084013567ffffffffffffffff8111156200121557600080fd5b620012238682870162001172565b9150509250925092565b600080604083850312156200124157600080fd5b823591506020830135620010e281620010ed565b600080600080608085870312156200126c57600080fd5b843567ffffffffffffffff8111156200128457600080fd5b620012928782880162001172565b94505060208501359250604085013591506060850135620012b381620010ed565b939692955090935050565b600080600080600060a08688031215620012d757600080fd5b85359450602086013567ffffffffffffffff811115620012f657600080fd5b620013048882890162001172565b945050604086013592506060860135915060808601356200132581620010ed565b809150509295509295909350565b6020808252825182820181905260009190848201906040850190845b81811015620013765783516001600160a01b0316835292840192918401916001016200134f565b50909695505050505050565b60005b838110156200139f57818101518382015260200162001385565b50506000910152565b60008151808452620013c281602086016020860162001382565b601f01601f19169290920160200192915050565b60a081526000620013eb60a0830188620013a8565b905085602083015284604083015260ff8416606083015282151560808301529695505050505050565b634e487b7160e01b600052603260045260246000fd5b60ff8316815260406020820152600062000a6f6040830184620013a8565b634e487b7160e01b600052601160045260246000fd5b60006001820162001473576200147362001448565b5060010190565b60c0815260006200148f60c0830189620013a8565b602083019790975250604081019490945260ff92909216606084015260808301526001600160a01b031660a090910152919050565b60a081526000620014d960a0830188620013a8565b905085602083015284604083015260ff841660608301528260808301529695505050505050565b608081526000620015156080830187620013a8565b602083019590955250604081019290925260ff16606090910152919050565b600060208083850312156200154857600080fd5b825167ffffffffffffffff808211156200156157600080fd5b818501915085601f8301126200157657600080fd5b8151818111156200158b576200158b620010fd565b8060051b91506200159e84830162001113565b8181529183018401918481019088841115620015b957600080fd5b938501935b83851015620015e75784519250620015d683620010a4565b8282529385019390850190620015be565b98975050505050505050565b6000602082840312156200160657600080fd5b815167ffffffffffffffff8111156200161e57600080fd5b8201601f810184136200163057600080fd5b805162001641620011958262001147565b8181528560208385010111156200165757600080fd5b6200166a82602083016020860162001382565b95945050505050565b6000602082840312156200168657600080fd5b5051919050565b600060208284031215620016a057600080fd5b81516200104981620010ed565b600060208284031215620016c057600080fd5b815180151581146200104957600080fd5b7f416363657373436f6e74726f6c3a206163636f756e74200000000000000000008152600083516200170b81601785016020880162001382565b7001034b99036b4b9b9b4b733903937b6329607d1b60179184019182015283516200173e81602884016020880162001382565b01602801949350505050565b602081526000620010496020830184620013a8565b8082028115828204841417620003a157620003a162001448565b80820180821115620003a157620003a162001448565b600081620017a157620017a162001448565b50600019019056fe60a06040523480156200001157600080fd5b5060405162001d0538038062001d058339810160408190526200003491620001a7565b62000041600033620000b2565b6200006d7f6a74bd5720a9ba372841f356cf6872b1006d19dfc367da64ab98cf47824ed3c033620000b2565b60026200007b87826200034c565b506004949094556005929092556007805460ff191660ff929092169190911790556003556001600160a01b03166080525062000418565b620000be8282620000c2565b5050565b6000828152602081815260408083206001600160a01b038516845290915290205460ff16620000be576000828152602081815260408083206001600160a01b03851684529091529020805460ff191660011790556200011e3390565b6001600160a01b0316816001600160a01b0316837f2f8788117e7eff1d82e926ec794901d17c78024a50270940304540a733656f0d60405160405180910390a45050565b634e487b7160e01b600052604160045260246000fd5b805160ff811681146200018a57600080fd5b919050565b80516001600160a01b03811681146200018a57600080fd5b60008060008060008060c08789031215620001c157600080fd5b86516001600160401b0380821115620001d957600080fd5b818901915089601f830112620001ee57600080fd5b81518181111562000203576200020362000162565b604051601f8201601f19908116603f011681019083821181831017156200022e576200022e62000162565b81604052828152602093508c848487010111156200024b57600080fd5b600091505b828210156200026f578482018401518183018501529083019062000250565b6000848483010152809a505050508089015196505050604087015193506200029a6060880162000178565b925060808701519150620002b160a088016200018f565b90509295509295509295565b600181811c90821680620002d257607f821691505b602082108103620002f357634e487b7160e01b600052602260045260246000fd5b50919050565b601f8211156200034757600081815260208120601f850160051c81016020861015620003225750805b601f850160051c820191505b8181101562000343578281556001016200032e565b5050505b505050565b81516001600160401b0381111562000368576200036862000162565b6200038081620003798454620002bd565b84620002f9565b602080601f831160018114620003b857600084156200039f5750858301515b600019600386901b1c1916600185901b17855562000343565b600085815260208120601f198616915b82811015620003e957888601518255948401946001909101908401620003c8565b5085821015620004085787850151600019600388901b60f8161c191681555b5050505050600190811b01905550565b6080516118bc62000449600039600081816103ff0152818161079a015281816109340152610b4701526118bc6000f3fe608060405234801561001057600080fd5b50600436106101c45760003560e01c80639346a95e116100f9578063da58c7d911610097578063eb316ef911610071578063eb316ef9146103d6578063eb37266b146103e8578063f132b62c146103f1578063fc0c546a146103fa57600080fd5b8063da58c7d914610385578063e11311b6146103b0578063e2feebce146103c357600080fd5b8063b81c6453116100d3578063b81c645314610342578063c003003214610355578063c2b6b58c1461035e578063d547741f1461037257600080fd5b80639346a95e1461031d578063a217fddf14610332578063a97b8b4d1461033a57600080fd5b806332ced316116101665780634a79d50c116101405780634a79d50c146102cf5780635591dc6b146102d7578063631f9852146102f757806391d148541461030a57600080fd5b806332ced3161461027c5780633514898b1461029c57806336568abe146102bc57600080fd5b80631715acb9116101a25780631715acb914610227578063248a9ca3146102315780632c4c7f8c146102545780632f2ff15d1461026957600080fd5b806301ffc9a7146101c95780630d15fd77146101f15780631069143a14610208575b600080fd5b6101dc6101d73660046111ef565b610421565b60405190151581526020015b60405180910390f35b6101fa60065481565b6040519081526020016101e8565b6007546102159060ff1681565b60405160ff90911681526020016101e8565b61022f610458565b005b6101fa61023f366004611219565b60009081526020819052604090206001015490565b6101fa60008051602061186783398151915281565b61022f61027736600461124e565b6104fe565b61028f61028a36600461128b565b610528565b6040516101e891906112f6565b6101fa6102aa36600461128b565b60096020526000908152604090205481565b61022f6102ca36600461124e565b6105c2565b61028f610640565b6101fa6102e5366004611309565b60086020526000908152604090205481565b6007546101dc9062010000900460ff1681565b6101dc61031836600461124e565b61064d565b610325610676565b6040516101e89190611324565b6101fa600081565b61022f6106d8565b61022f610350366004611371565b6108e3565b6101fa60035481565b6007546101dc906301000000900460ff1681565b61022f61038036600461124e565b610c53565b610398610393366004611219565b610c78565b6040516001600160a01b0390911681526020016101e8565b61022f6103be36600461143e565b610ca2565b61022f6103d136600461148c565b610d7e565b60075461021590610100900460ff1681565b6101fa60055481565b6101fa60045481565b6103987f000000000000000000000000000000000000000000000000000000000000000081565b60006001600160e01b03198216637965db0b60e01b148061045257506301ffc9a760e01b6001600160e01b03198316145b92915050565b60008051602061186783398151915261047081610e31565b60075460009062010000900460ff16156104a55760405162461bcd60e51b815260040161049c906114ed565b60405180910390fd5b6007805462ff0000191662010000908117918290556040517f01ad4ead72182812fe731434ad17700ac4ead03c904102484e03ef91889f4f12926104f292900460ff161515815260200190565b60405180910390a15050565b60008281526020819052604090206001015461051981610e31565b6105238383610e3e565b505050565b600a602052600090815260409020805461054190611524565b80601f016020809104026020016040519081016040528092919081815260200182805461056d90611524565b80156105ba5780601f1061058f576101008083540402835291602001916105ba565b820191906000526020600020905b81548152906001019060200180831161059d57829003601f168201915b505050505081565b6001600160a01b03811633146106325760405162461bcd60e51b815260206004820152602f60248201527f416363657373436f6e74726f6c3a2063616e206f6e6c792072656e6f756e636560448201526e103937b632b9903337b91039b2b63360891b606482015260840161049c565b61063c8282610ec2565b5050565b6002805461054190611524565b6000918252602082815260408084206001600160a01b0393909316845291905290205460ff1690565b606060018054806020026020016040519081016040528092919081815260200182805480156106ce57602002820191906000526020600020905b81546001600160a01b031681526001909101906020018083116106b0575b5050505050905090565b6000805160206118678339815191526106f081610e31565b60075460019062010000900460ff161515811461071f5760405162461bcd60e51b815260040161049c906114ed565b60055442116107705760405162461bcd60e51b815260206004820152601f60248201527f496e76616c69643a2042616c6c6f7420646964206e6f7420656e642079657400604482015260640161049c565b6007805463ff0000001916630100000017905561078b610f27565b60005b6001548110156108a3577f00000000000000000000000000000000000000000000000000000000000000006001600160a01b0316633648fd7a600183815481106107da576107da61155e565b9060005260206000200160009054906101000a90046001600160a01b0316600860006001868154811061080f5761080f61155e565b6000918252602080832091909101546001600160a01b039081168452908301939093526040918201902054905160e085901b6001600160e01b03191681529290911660048301526024820152604401600060405180830381600087803b15801561087857600080fd5b505af115801561088c573d6000803e3d6000fd5b50505050808061089b9061158a565b91505061078e565b50600754604051630100000090910460ff16151581527f5a8d69a26a22b1030a9d3fe8bfd44d959d8d3bca999174a6682e91d30c257370906020016104f2565b60075460019062010000900460ff16151581146109125760405162461bcd60e51b815260040161049c906114ed565b6040516370a0823160e01b81526001600160a01b0383811660048301526000917f0000000000000000000000000000000000000000000000000000000000000000909116906370a0823190602401602060405180830381865afa15801561097d573d6000803e3d6000fd5b505050506040513d601f19601f820116820180604052508101906109a191906115a3565b9050600081116109fe5760405162461bcd60e51b815260206004820152602260248201527f596f75206d75737420766f746520666f72206174206c65617374203120746f6b60448201526132b760f11b606482015260840161049c565b6001600160a01b0383166000908152600b602052604090205460ff1615610a605760405162461bcd60e51b8152602060048201526016602482015275165bdd481a185d9948185b1c9958591e481d9bdd195960521b604482015260640161049c565b6001600160a01b0383166000908152600b60205260409020805460ff1916600117905560075460ff9081169085161115610acd5760405162461bcd60e51b815260206004820152600e60248201526d24b73b30b634b21037b83a34b7b760911b604482015260640161049c565b6001600160a01b03831660009081526008602052604081208054839290610af59084906115bc565b909155505060ff841660009081526009602052604081208054839290610b1c9084906115bc565b90915550506040516308a0e01360e21b81526001600160a01b038481166004830152602482018390527f00000000000000000000000000000000000000000000000000000000000000001690632283804c90604401600060405180830381600087803b158015610b8b57600080fd5b505af1158015610b9f573d6000803e3d6000fd5b505060018054808201825560009182527fb10e2d527612073b26eecdfd717e6a320cf44b4afac2b0732d9fcbe2b7fa0cf60180546001600160a01b0319166001600160a01b0388161790556006805493509150610bfb8361158a565b9091555050604080516001600160a01b038516815260ff861660208201529081018290527f78d96294d2cf18d8e22a8ad08170a97b7b0fbb5679ae831255aed8508c124ac9906060015b60405180910390a150505050565b600082815260208190526040902060010154610c6e81610e31565b6105238383610ec2565b60018181548110610c8857600080fd5b6000918252602090912001546001600160a01b0316905081565b600080516020611867833981519152610cba81610e31565b60075460009062010000900460ff1615610ce65760405162461bcd60e51b815260040161049c906114ed565b60075460ff9081169085161115610d305760405162461bcd60e51b815260206004820152600e60248201526d24b73b30b634b21037b83a34b7b760911b604482015260640161049c565b60ff84166000908152600a60205260409020610d4c848261161d565b507f8c409f72ef779aa1a706329da10651834aca79d282ca233880d1f0ef501029998484604051610c459291906116dd565b600080516020611867833981519152610d9681610e31565b60075460009062010000900460ff1615610dc25760405162461bcd60e51b815260040161049c906114ed565b6002610dce878261161d565b50600485905560058490556007805460ff191660ff85169081179091556040517f5808b911ab7ea2bd920080a30c20c71ec9d20090ee7b35bcc9c887ce1f5c4c4e91610e21916002918991899190611701565b60405180910390a1505050505050565b610e3b8133610f83565b50565b610e48828261064d565b61063c576000828152602081815260408083206001600160a01b03851684529091529020805460ff19166001179055610e7e3390565b6001600160a01b0316816001600160a01b0316837f2f8788117e7eff1d82e926ec794901d17c78024a50270940304540a733656f0d60405160405180910390a45050565b610ecc828261064d565b1561063c576000828152602081815260408083206001600160a01b0385168085529252808320805460ff1916905551339285917ff6391f5c32d9c69d2a47ea670b442974b53935d1edc7fd64eb21e047a839171b9190a45050565b610f2f610fe7565b6007805461ff00191661010060ff93841681029190911791829055604051910490911681527f1bb3adaddfda2990ec021a2a72fed999cc9efaf1163523e6d7f765d4797d14c09060200160405180910390a1565b610f8d828261064d565b61063c57610fa5816001600160a01b0316601461104c565b610fb083602061104c565b604051602001610fc19291906117a4565b60408051601f198184030181529082905262461bcd60e51b825261049c916004016112f6565b60008080805b60075460ff90811690821610156110445760ff81166000908152600960205260409020548210156110325760ff81166000908152600960205260409020549092509050815b8061103c81611819565b915050610fed565b509092915050565b6060600061105b836002611838565b6110669060026115bc565b67ffffffffffffffff81111561107e5761107e61139b565b6040519080825280601f01601f1916602001820160405280156110a8576020820181803683370190505b509050600360fc1b816000815181106110c3576110c361155e565b60200101906001600160f81b031916908160001a905350600f60fb1b816001815181106110f2576110f261155e565b60200101906001600160f81b031916908160001a9053506000611116846002611838565b6111219060016115bc565b90505b6001811115611199576f181899199a1a9b1b9c1cb0b131b232b360811b85600f16601081106111555761115561155e565b1a60f81b82828151811061116b5761116b61155e565b60200101906001600160f81b031916908160001a90535060049490941c936111928161184f565b9050611124565b5083156111e85760405162461bcd60e51b815260206004820181905260248201527f537472696e67733a20686578206c656e67746820696e73756666696369656e74604482015260640161049c565b9392505050565b60006020828403121561120157600080fd5b81356001600160e01b0319811681146111e857600080fd5b60006020828403121561122b57600080fd5b5035919050565b80356001600160a01b038116811461124957600080fd5b919050565b6000806040838503121561126157600080fd5b8235915061127160208401611232565b90509250929050565b803560ff8116811461124957600080fd5b60006020828403121561129d57600080fd5b6111e88261127a565b60005b838110156112c15781810151838201526020016112a9565b50506000910152565b600081518084526112e28160208601602086016112a6565b601f01601f19169290920160200192915050565b6020815260006111e860208301846112ca565b60006020828403121561131b57600080fd5b6111e882611232565b6020808252825182820181905260009190848201906040850190845b818110156113655783516001600160a01b031683529284019291840191600101611340565b50909695505050505050565b6000806040838503121561138457600080fd5b61138d8361127a565b915061127160208401611232565b634e487b7160e01b600052604160045260246000fd5b600082601f8301126113c257600080fd5b813567ffffffffffffffff808211156113dd576113dd61139b565b604051601f8301601f19908116603f011681019082821181831017156114055761140561139b565b8160405283815286602085880101111561141e57600080fd5b836020870160208301376000602085830101528094505050505092915050565b6000806040838503121561145157600080fd5b61145a8361127a565b9150602083013567ffffffffffffffff81111561147657600080fd5b611482858286016113b1565b9150509250929050565b600080600080608085870312156114a257600080fd5b843567ffffffffffffffff8111156114b957600080fd5b6114c5878288016113b1565b94505060208501359250604085013591506114e26060860161127a565b905092959194509250565b6020808252601f908201527f496e76616c69643a2046756e6374696f6e206e6f742076616c6964206e6f7700604082015260600190565b600181811c9082168061153857607f821691505b60208210810361155857634e487b7160e01b600052602260045260246000fd5b50919050565b634e487b7160e01b600052603260045260246000fd5b634e487b7160e01b600052601160045260246000fd5b60006001820161159c5761159c611574565b5060010190565b6000602082840312156115b557600080fd5b5051919050565b8082018082111561045257610452611574565b601f82111561052357600081815260208120601f850160051c810160208610156115f65750805b601f850160051c820191505b8181101561161557828155600101611602565b505050505050565b815167ffffffffffffffff8111156116375761163761139b565b61164b816116458454611524565b846115cf565b602080601f83116001811461168057600084156116685750858301515b600019600386901b1c1916600185901b178555611615565b600085815260208120601f198616915b828110156116af57888601518255948401946001909101908401611690565b50858210156116cd5787850151600019600388901b60f8161c191681555b5050505050600190811b01905550565b60ff831681526040602082015260006116f960408301846112ca565b949350505050565b60808152600080865461171381611524565b80608086015260a0600180841660008114611735576001811461174f57611780565b60ff1985168884015283151560051b880183019550611780565b8b60005260208060002060005b868110156117775781548b820187015290840190820161175c565b8a018501975050505b5050505050602083019590955250604081019290925260ff16606090910152919050565b7f416363657373436f6e74726f6c3a206163636f756e74200000000000000000008152600083516117dc8160178501602088016112a6565b7001034b99036b4b9b9b4b733903937b6329607d1b601791840191820152835161180d8160288401602088016112a6565b01602801949350505050565b600060ff821660ff810361182f5761182f611574565b60010192915050565b808202811582820484141761045257610452611574565b60008161185e5761185e611574565b50600019019056fe6a74bd5720a9ba372841f356cf6872b1006d19dfc367da64ab98cf47824ed3c0a2646970667358221220cebc5d244e9c0b949167f7274b3ba963075acb60faf17719aa110b38d184b74264736f6c634300081100336a74bd5720a9ba372841f356cf6872b1006d19dfc367da64ab98cf47824ed3c0a2646970667358221220b25b8a50d2ff55f87cd96228c0b29822edd76dd54ee43f25913d413122369d3c64736f6c63430008110033",
  "linkReferences": {},
  "deployedLinkReferences": {}
}