{
  "_format": "hh-sol-artifact-1",
  "contractName": "Token",
  "sourceName": "contracts/Token.sol",
  "abi": [
    {
      "inputs": [],
      "stateMutability": "nonpayable",
      "type": "constructor"
    },
    {
      "anonymous": false,
      "inputs": [
        {
          "indexed": true,
          "internalType": "address",
          "name": "owner",
          "type": "address"
        },
        {
          "indexed": true,
          "internalType": "address",
          "name": "spender",
          "type": "address"
        },
        {
          "indexed": false,
          "internalType": "uint256",
          "name": "value",
          "type": "uint256"
        }
      ],
      "name": "Approval",
      "type": "event"
    },
    {
      "anonymous": false,
      "inputs": [
        {
          "indexed": true,
          "internalType": "address",
          "name": "user",
          "type": "address"
        },
        {
          "indexed": false,
          "internalType": "uint256",
          "name": "amount",
          "type": "uint256"
        }
      ],
      "name": "Rewarded",
      "type": "event"
    },
    {
      "anonymous": false,
      "inputs": [
        {
          "indexed": true,
          "internalType": "bytes32",
          "name": "role",
          "type": "bytes32"
        },
        {
          "indexed": true,
          "internalType": "bytes32",
          "name": "previousAdminRole",
          "type": "bytes32"
        },
        {
          "indexed": true,
          "internalType": "bytes32",
          "name": "newAdminRole",
          "type": "bytes32"
        }
      ],
      "name": "RoleAdminChanged",
      "type": "event"
    },
    {
      "anonymous": false,
      "inputs": [
        {
          "indexed": true,
          "internalType": "bytes32",
          "name": "role",
          "type": "bytes32"
        },
        {
          "indexed": true,
          "internalType": "address",
          "name": "account",
          "type": "address"
        },
        {
          "indexed": true,
          "internalType": "address",
          "name": "sender",
          "type": "address"
        }
      ],
      "name": "RoleGranted",
      "type": "event"
    },
    {
      "anonymous": false,
      "inputs": [
        {
          "indexed": true,
          "internalType": "bytes32",
          "name": "role",
          "type": "bytes32"
        },
        {
          "indexed": true,
          "internalType": "address",
          "name": "account",
          "type": "address"
        },
        {
          "indexed": true,
          "internalType": "address",
          "name": "sender",
          "type": "address"
        }
      ],
      "name": "RoleRevoked",
      "type": "event"
    },
    {
      "anonymous": false,
      "inputs": [
        {
          "indexed": true,
          "internalType": "address",
          "name": "user",
          "type": "address"
        },
        {
          "indexed": false,
          "internalType": "uint256",
          "name": "amount",
          "type": "uint256"
        }
      ],
      "name": "TokensLocked",
      "type": "event"
    },
    {
      "anonymous": false,
      "inputs": [
        {
          "indexed": true,
          "internalType": "address",
          "name": "user",
          "type": "address"
        },
        {
          "indexed": false,
          "internalType": "uint256",
          "name": "amount",
          "type": "uint256"
        }
      ],
      "name": "TokensUnlocked",
      "type": "event"
    },
    {
      "anonymous": false,
      "inputs": [
        {
          "indexed": true,
          "internalType": "address",
          "name": "from",
          "type": "address"
        },
        {
          "indexed": true,
          "internalType": "address",
          "name": "to",
          "type": "address"
        },
        {
          "indexed": false,
          "internalType": "uint256",
          "name": "value",
          "type": "uint256"
        }
      ],
      "name": "Transfer",
      "type": "event"
    },
    {
      "inputs": [],
      "name": "DEFAULT_ADMIN_ROLE",
      "outputs": [
        {
          "internalType": "bytes32",
          "name": "",
          "type": "bytes32"
        }
      ],
      "stateMutability": "view",
      "type": "function"
    },
    {
      "inputs": [],
      "name": "INITIAL_SUPPLY",
      "outputs": [
        {
          "internalType": "uint256",
          "name": "",
          "type": "uint256"
        }
      ],
      "stateMutability": "view",
      "type": "function"
    },
    {
      "inputs": [],
      "name": "NAME",
      "outputs": [
        {
          "internalType": "string",
          "name": "",
          "type": "string"
        }
      ],
      "stateMutability": "view",
      "type": "function"
    },
    {
      "inputs": [],
      "name": "SYMBOL",
      "outputs": [
        {
          "internalType": "string",
          "name": "",
          "type": "string"
        }
      ],
      "stateMutability": "view",
      "type": "function"
    },
    {
      "inputs": [],
      "name": "TEAM_MEMBER",
      "outputs": [
        {
          "internalType": "bytes32",
          "name": "",
          "type": "bytes32"
        }
      ],
      "stateMutability": "view",
      "type": "function"
    },
    {
      "inputs": [],
      "name": "TIME_TO_GET_REWARDS",
      "outputs": [
        {
          "internalType": "uint256",
          "name": "",
          "type": "uint256"
        }
      ],
      "stateMutability": "view",
      "type": "function"
    },
    {
      "inputs": [
        {
          "internalType": "address",
          "name": "addr",
          "type": "address"
        }
      ],
      "name": "addTeamMember",
      "outputs": [],
      "stateMutability": "nonpayable",
      "type": "function"
    },
    {
      "inputs": [
        {
          "internalType": "address",
          "name": "to",
          "type": "address"
        },
        {
          "internalType": "uint256",
          "name": "amount",
          "type": "uint256"
        }
      ],
      "name": "addTokensUsedBallot",
      "outputs": [],
      "stateMutability": "nonpayable",
      "type": "function"
    },
    {
      "inputs": [
        {
          "internalType": "address",
          "name": "owner",
          "type": "address"
        },
        {
          "internalType": "address",
          "name": "spender",
          "type": "address"
        }
      ],
      "name": "allowance",
      "outputs": [
        {
          "internalType": "uint256",
          "name": "",
          "type": "uint256"
        }
      ],
      "stateMutability": "view",
      "type": "function"
    },
    {
      "inputs": [
        {
          "internalType": "address",
          "name": "spender",
          "type": "address"
        },
        {
          "internalType": "uint256",
          "name": "amount",
          "type": "uint256"
        }
      ],
      "name": "approve",
      "outputs": [
        {
          "internalType": "bool",
          "name": "",
          "type": "bool"
        }
      ],
      "stateMutability": "nonpayable",
      "type": "function"
    },
    {
      "inputs": [
        {
          "internalType": "address",
          "name": "account",
          "type": "address"
        }
      ],
      "name": "balanceOf",
      "outputs": [
        {
          "internalType": "uint256",
          "name": "",
          "type": "uint256"
        }
      ],
      "stateMutability": "view",
      "type": "function"
    },
    {
      "inputs": [
        {
          "internalType": "address",
          "name": "from",
          "type": "address"
        },
        {
          "internalType": "uint256",
          "name": "amount",
          "type": "uint256"
        }
      ],
      "name": "burn",
      "outputs": [],
      "stateMutability": "nonpayable",
      "type": "function"
    },
    {
      "inputs": [
        {
          "internalType": "uint256",
          "name": "amount",
          "type": "uint256"
        }
      ],
      "name": "burnMyTokens",
      "outputs": [],
      "stateMutability": "nonpayable",
      "type": "function"
    },
    {
      "inputs": [],
      "name": "decimals",
      "outputs": [
        {
          "internalType": "uint8",
          "name": "",
          "type": "uint8"
        }
      ],
      "stateMutability": "view",
      "type": "function"
    },
    {
      "inputs": [
        {
          "internalType": "address",
          "name": "spender",
          "type": "address"
        },
        {
          "internalType": "uint256",
          "name": "subtractedValue",
          "type": "uint256"
        }
      ],
      "name": "decreaseAllowance",
      "outputs": [
        {
          "internalType": "bool",
          "name": "",
          "type": "bool"
        }
      ],
      "stateMutability": "nonpayable",
      "type": "function"
    },
    {
      "inputs": [],
      "name": "getReward",
      "outputs": [],
      "stateMutability": "nonpayable",
      "type": "function"
    },
    {
      "inputs": [
        {
          "internalType": "bytes32",
          "name": "role",
          "type": "bytes32"
        }
      ],
      "name": "getRoleAdmin",
      "outputs": [
        {
          "internalType": "bytes32",
          "name": "",
          "type": "bytes32"
        }
      ],
      "stateMutability": "view",
      "type": "function"
    },
    {
      "inputs": [
        {
          "internalType": "bytes32",
          "name": "role",
          "type": "bytes32"
        },
        {
          "internalType": "address",
          "name": "account",
          "type": "address"
        }
      ],
      "name": "grantRole",
      "outputs": [],
      "stateMutability": "nonpayable",
      "type": "function"
    },
    {
      "inputs": [
        {
          "internalType": "bytes32",
          "name": "role",
          "type": "bytes32"
        },
        {
          "internalType": "address",
          "name": "account",
          "type": "address"
        }
      ],
      "name": "hasRole",
      "outputs": [
        {
          "internalType": "bool",
          "name": "",
          "type": "bool"
        }
      ],
      "stateMutability": "view",
      "type": "function"
    },
    {
      "inputs": [
        {
          "internalType": "address",
          "name": "spender",
          "type": "address"
        },
        {
          "internalType": "uint256",
          "name": "addedValue",
          "type": "uint256"
        }
      ],
      "name": "increaseAllowance",
      "outputs": [
        {
          "internalType": "bool",
          "name": "",
          "type": "bool"
        }
      ],
      "stateMutability": "nonpayable",
      "type": "function"
    },
    {
      "inputs": [
        {
          "internalType": "uint256",
          "name": "amount",
          "type": "uint256"
        }
      ],
      "name": "lockTokens",
      "outputs": [],
      "stateMutability": "nonpayable",
      "type": "function"
    },
    {
      "inputs": [
        {
          "internalType": "address",
          "name": "to",
          "type": "address"
        },
        {
          "internalType": "uint256",
          "name": "amount",
          "type": "uint256"
        }
      ],
      "name": "mint",
      "outputs": [],
      "stateMutability": "nonpayable",
      "type": "function"
    },
    {
      "inputs": [],
      "name": "name",
      "outputs": [
        {
          "internalType": "string",
          "name": "",
          "type": "string"
        }
      ],
      "stateMutability": "view",
      "type": "function"
    },
    {
      "inputs": [
        {
          "internalType": "address",
          "name": "addr",
          "type": "address"
        }
      ],
      "name": "removeTeamMember",
      "outputs": [],
      "stateMutability": "nonpayable",
      "type": "function"
    },
    {
      "inputs": [
        {
          "internalType": "address",
          "name": "from",
          "type": "address"
        },
        {
          "internalType": "uint256",
          "name": "amount",
          "type": "uint256"
        }
      ],
      "name": "removeTokensUsedBallot",
      "outputs": [],
      "stateMutability": "nonpayable",
      "type": "function"
    },
    {
      "inputs": [
        {
          "internalType": "bytes32",
          "name": "role",
          "type": "bytes32"
        },
        {
          "internalType": "address",
          "name": "account",
          "type": "address"
        }
      ],
      "name": "renounceRole",
      "outputs": [],
      "stateMutability": "nonpayable",
      "type": "function"
    },
    {
      "inputs": [
        {
          "internalType": "bytes32",
          "name": "role",
          "type": "bytes32"
        },
        {
          "internalType": "address",
          "name": "account",
          "type": "address"
        }
      ],
      "name": "revokeRole",
      "outputs": [],
      "stateMutability": "nonpayable",
      "type": "function"
    },
    {
      "inputs": [],
      "name": "reward",
      "outputs": [
        {
          "internalType": "uint256",
          "name": "",
          "type": "uint256"
        }
      ],
      "stateMutability": "view",
      "type": "function"
    },
    {
      "inputs": [
        {
          "internalType": "uint256",
          "name": "amount",
          "type": "uint256"
        }
      ],
      "name": "setReward",
      "outputs": [],
      "stateMutability": "nonpayable",
      "type": "function"
    },
    {
      "inputs": [
        {
          "internalType": "bytes4",
          "name": "interfaceId",
          "type": "bytes4"
        }
      ],
      "name": "supportsInterface",
      "outputs": [
        {
          "internalType": "bool",
          "name": "",
          "type": "bool"
        }
      ],
      "stateMutability": "view",
      "type": "function"
    },
    {
      "inputs": [],
      "name": "symbol",
      "outputs": [
        {
          "internalType": "string",
          "name": "",
          "type": "string"
        }
      ],
      "stateMutability": "view",
      "type": "function"
    },
    {
      "inputs": [
        {
          "internalType": "address",
          "name": "",
          "type": "address"
        }
      ],
      "name": "time",
      "outputs": [
        {
          "internalType": "uint256",
          "name": "",
          "type": "uint256"
        }
      ],
      "stateMutability": "view",
      "type": "function"
    },
    {
      "inputs": [
        {
          "internalType": "address",
          "name": "",
          "type": "address"
        }
      ],
      "name": "tokensUsedBallot",
      "outputs": [
        {
          "internalType": "uint256",
          "name": "",
          "type": "uint256"
        }
      ],
      "stateMutability": "view",
      "type": "function"
    },
    {
      "inputs": [
        {
          "internalType": "address",
          "name": "",
          "type": "address"
        }
      ],
      "name": "tokensUsedLock",
      "outputs": [
        {
          "internalType": "uint256",
          "name": "",
          "type": "uint256"
        }
      ],
      "stateMutability": "view",
      "type": "function"
    },
    {
      "inputs": [],
      "name": "totalLockedTokens",
      "outputs": [
        {
          "internalType": "uint256",
          "name": "",
          "type": "uint256"
        }
      ],
      "stateMutability": "view",
      "type": "function"
    },
    {
      "inputs": [],
      "name": "totalSupply",
      "outputs": [
        {
          "internalType": "uint256",
          "name": "",
          "type": "uint256"
        }
      ],
      "stateMutability": "view",
      "type": "function"
    },
    {
      "inputs": [
        {
          "internalType": "address",
          "name": "to",
          "type": "address"
        },
        {
          "internalType": "uint256",
          "name": "amount",
          "type": "uint256"
        }
      ],
      "name": "transfer",
      "outputs": [
        {
          "internalType": "bool",
          "name": "",
          "type": "bool"
        }
      ],
      "stateMutability": "nonpayable",
      "type": "function"
    },
    {
      "inputs": [
        {
          "internalType": "address",
          "name": "from",
          "type": "address"
        },
        {
          "internalType": "address",
          "name": "to",
          "type": "address"
        },
        {
          "internalType": "uint256",
          "name": "amount",
          "type": "uint256"
        }
      ],
      "name": "transferFrom",
      "outputs": [
        {
          "internalType": "bool",
          "name": "",
          "type": "bool"
        }
      ],
      "stateMutability": "nonpayable",
      "type": "function"
    },
    {
      "inputs": [
        {
          "internalType": "uint256",
          "name": "amount",
          "type": "uint256"
        }
      ],
      "name": "unlockTokens",
      "outputs": [],
      "stateMutability": "nonpayable",
      "type": "function"
    }
  ],
  "bytecode": "0x60806040523480156200001157600080fd5b506040518060400160405280600681526020016520a4a1b7b4b760d11b8152506040518060400160405280600381526020016258414960e81b81525081600390816200005e9190620004c4565b5060046200006d8282620004c4565b506200007f91506000905033620000d5565b620000ab7f6a74bd5720a9ba372841f356cf6872b1006d19dfc367da64ab98cf47824ed3c033620000d5565b620000bd33655af3107a4000620000e5565b600680546001600160a01b03191633179055620005d2565b620000e18282620001dc565b5050565b6001600160a01b038216620001415760405162461bcd60e51b815260206004820152601f60248201527f45524332303a206d696e7420746f20746865207a65726f20616464726573730060448201526064015b60405180910390fd5b6200014f6000838362000266565b8060026000828254620001639190620005a6565b90915550506001600160a01b0382166000908152602081905260408120805483929062000192908490620005a6565b90915550506040518181526001600160a01b038316906000907fddf252ad1be2c89b69c2b068fc378daa952ba7f163c4a11628f55a4df523b3ef9060200160405180910390a35050565b620001e88282620003f3565b620000e15760008281526005602090815260408083206001600160a01b03851684529091529020805460ff19166001179055620002223390565b6001600160a01b0316816001600160a01b0316837f2f8788117e7eff1d82e926ec794901d17c78024a50270940304540a733656f0d60405160405180910390a45050565b6001600160a01b0383166000908152602081815260408083205460089092528220549091620002968284620005bc565b6001600160a01b038716600090815260076020908152604080832054918390528220549293509091620002ca9190620005bc565b6006549091506001600160a01b0388811691161480620003115750620003117f6a74bd5720a9ba372841f356cf6872b1006d19dfc367da64ab98cf47824ed3c088620003f3565b806200032457506001600160a01b038716155b620003cd57600082116200037b5760405162461bcd60e51b815260206004820152601560248201527f546f6b656e3a204e6f20746f6b656e73206c6566740000000000000000000000604482015260640162000138565b60008111620003cd5760405162461bcd60e51b815260206004820152601560248201527f546f6b656e3a204e6f20746f6b656e73206c6566740000000000000000000000604482015260640162000138565b620003e5878787620003ee60201b6200072d1760201c565b50505050505050565b505050565b60008281526005602090815260408083206001600160a01b038516845290915290205460ff165b92915050565b634e487b7160e01b600052604160045260246000fd5b600181811c908216806200044b57607f821691505b6020821081036200046c57634e487b7160e01b600052602260045260246000fd5b50919050565b601f821115620003ee57600081815260208120601f850160051c810160208610156200049b5750805b601f850160051c820191505b81811015620004bc57828155600101620004a7565b505050505050565b81516001600160401b03811115620004e057620004e062000420565b620004f881620004f1845462000436565b8462000472565b602080601f831160018114620005305760008415620005175750858301515b600019600386901b1c1916600185901b178555620004bc565b600085815260208120601f198616915b82811015620005615788860151825594840194600190910190840162000540565b5085821015620005805787850151600019600388901b60f8161c191681555b5050505050600190811b01905550565b634e487b7160e01b600052601160045260246000fd5b808201808211156200041a576200041a62000590565b818103818111156200041a576200041a62000590565b611a2c80620005e26000396000f3fe608060405234801561001057600080fd5b506004361061023d5760003560e01c80633eb2b5ad1161013b5780639dc29fac116100b8578063bfd987c51161007c578063bfd987c5146104f6578063d547741f14610516578063dd62ed3e14610529578063f5c476f91461053c578063f76f8d781461054557600080fd5b80639dc29fac14610490578063a217fddf146104a3578063a3f4df7e146104ab578063a457c2d7146104d0578063a9059cbb146104e357600080fd5b80637c405325116100ff5780637c405325146104385780637c67a3e21461044b57806391d148541461046b578063933237731461047e57806395d89b411461048857600080fd5b80633eb2b5ad146103c357806340c10f19146103d65780636764765d146103e95780636e27d889146103fc57806370a082311461040f57600080fd5b8063248a9ca3116101c9578063313ce5671161018d578063313ce567146103735780633648fd7a1461038257806336568abe1461039557806339509351146103a85780633d18b912146103bb57600080fd5b8063248a9ca314610308578063293be4561461032b5780632c4c7f8c1461033e5780632f2ff15d146103535780632ff2e9dc1461036657600080fd5b806318160ddd1161021057806318160ddd146102a7578063207c3a50146102b95780632283804c146102d9578063228cb733146102ec57806323b872dd146102f557600080fd5b806301ffc9a71461024257806306fdde031461026a578063095ea7b31461027f57806314eba02614610292575b600080fd5b6102556102503660046116b3565b610567565b60405190151581526020015b60405180910390f35b61027261059e565b6040516102619190611701565b61025561028d366004611750565b610630565b6102a56102a036600461177a565b610648565b005b6002545b604051908152602001610261565b6102ab6102c736600461177a565b60086020526000908152604090205481565b6102a56102e7366004611750565b61067c565b6102ab600a5481565b610255610303366004611795565b6106c6565b6102ab6103163660046117d1565b60009081526005602052604090206001015490565b6102a56103393660046117d1565b6106ea565b6102ab6000805160206119d783398151915281565b6102a56103613660046117ea565b610708565b6102ab655af3107a400081565b60405160088152602001610261565b6102a5610390366004611750565b610732565b6102a56103a33660046117ea565b610772565b6102556103b6366004611750565b6107f1565b6102a5610813565b6102a56103d136600461177a565b610964565b6102a56103e4366004611750565b610994565b6102a56103f73660046117d1565b6109b6565b6102a561040a3660046117d1565b6109d8565b6102ab61041d36600461177a565b6001600160a01b031660009081526020819052604090205490565b6102a56104463660046117d1565b610af0565b6102ab61045936600461177a565b600b6020526000908152604090205481565b6102556104793660046117ea565b610bc6565b6102ab6202a30081565b610272610bf1565b6102a561049e366004611750565b610c00565b6102ab600081565b6102726040518060400160405280600681526020016520a4a1b7b4b760d11b81525081565b6102556104de366004611750565b610c22565b6102556104f1366004611750565b610c9d565b6102ab61050436600461177a565b60076020526000908152604090205481565b6102a56105243660046117ea565b610cab565b6102ab610537366004611816565b610cd0565b6102ab60095481565b6102726040518060400160405280600381526020016258414960e81b81525081565b60006001600160e01b03198216637965db0b60e01b148061059857506301ffc9a760e01b6001600160e01b03198316145b92915050565b6060600380546105ad90611840565b80601f01602080910402602001604051908101604052809291908181526020018280546105d990611840565b80156106265780601f106105fb57610100808354040283529160200191610626565b820191906000526020600020905b81548152906001019060200180831161060957829003601f168201915b5050505050905090565b60003361063e818585610cfb565b5060019392505050565b6000805160206119d783398151915261066081610e1f565b6106786000805160206119d783398151915283610cab565b5050565b6000805160206119d783398151915261069481610e1f565b6001600160a01b038316600090815260076020526040812080548492906106bc908490611890565b9091555050505050565b6000336106d4858285610e2c565b6106df858585610ea6565b506001949350505050565b6000805160206119d783398151915261070281610e1f565b50600a55565b60008281526005602052604090206001015461072381610e1f565b61072d838361107f565b505050565b6000805160206119d783398151915261074a81610e1f565b6001600160a01b038316600090815260076020526040812080548492906106bc9084906118a3565b6001600160a01b03811633146107e75760405162461bcd60e51b815260206004820152602f60248201527f416363657373436f6e74726f6c3a2063616e206f6e6c792072656e6f756e636560448201526e103937b632b9903337b91039b2b63360891b60648201526084015b60405180910390fd5b6106788282611105565b60003361063e8185856108048383610cd0565b61080e9190611890565b610cfb565b33600090815260086020526040902054806108705760405162461bcd60e51b815260206004820152601760248201527f546f6b656e3a204e6f20746f6b656e73206c6f636b656400000000000000000060448201526064016107de565b336000908152600b602052604081205461088a90426118a3565b336000908152600b6020526040902042905590506202a3008110156108e35760405162461bcd60e51b815260206004820152600f60248201526e4e6f7420656e6f7567682074696d6560881b60448201526064016107de565b6009546000906108f48460646118b6565b6108fe91906118cd565b905060006064600a548361091291906118b6565b61091c91906118cd565b9050610928338261116c565b60405181815233907fb3b7a071186534c03b40695710096f289fd4ed6c1a374aff0bb648955e4fe563906020015b60405180910390a250505050565b6000805160206119d783398151915261097c81610e1f565b6106786000805160206119d783398151915283611257565b6000805160206119d78339815191526109ac81610e1f565b61072d838361116c565b6000805160206119d78339815191526109ce81610e1f565b6106783383611261565b3360009081526020818152604080832054600890925282205490916109fd82846118a3565b905060008111610a1f5760405162461bcd60e51b81526004016107de906118ef565b80841115610a6f5760405162461bcd60e51b815260206004820152601d60248201527f546f6b656e3a204e6f7420656e6f75676820746f6b656e73206c65667400000060448201526064016107de565b3360009081526008602052604081208054869290610a8e908490611890565b925050819055508360096000828254610aa79190611890565b9091555050336000818152600b602052604090819020429055517fac87f20a77d28ee8bbb58ec87ea8fa968b3393efae1a368fd50b767c2847391c906109569087815260200190565b3360009081526008602052604090205480821115610b505760405162461bcd60e51b815260206004820152601f60248201527f546f6b656e3a204e6f7420656e6f75676820746f6b656e73206c6f636b65640060448201526064016107de565b3360009081526008602052604081208054849290610b6f9084906118a3565b925050819055508160096000828254610b8891906118a3565b909155505060405182815233907fe7b379c6c1fa169e9079c25e9143b127637eef8ec8c9d5c06ddb4ab3e11958889060200160405180910390a25050565b60009182526005602090815260408084206001600160a01b0393909316845291905290205460ff1690565b6060600480546105ad90611840565b6000805160206119d7833981519152610c1881610e1f565b61072d8383611261565b60003381610c308286610cd0565b905083811015610c905760405162461bcd60e51b815260206004820152602560248201527f45524332303a2064656372656173656420616c6c6f77616e63652062656c6f77604482015264207a65726f60d81b60648201526084016107de565b6106df8286868403610cfb565b60003361063e818585610ea6565b600082815260056020526040902060010154610cc681610e1f565b61072d8383611105565b6001600160a01b03918216600090815260016020908152604080832093909416825291909152205490565b6001600160a01b038316610d5d5760405162461bcd60e51b8152602060048201526024808201527f45524332303a20617070726f76652066726f6d20746865207a65726f206164646044820152637265737360e01b60648201526084016107de565b6001600160a01b038216610dbe5760405162461bcd60e51b815260206004820152602260248201527f45524332303a20617070726f766520746f20746865207a65726f206164647265604482015261737360f01b60648201526084016107de565b6001600160a01b0383811660008181526001602090815260408083209487168084529482529182902085905590518481527f8c5be1e5ebec7d5bd14f71427d1e84f3dd0314c0f7b2291e5b200ac8c7c3b925910160405180910390a3505050565b610e2981336113bb565b50565b6000610e388484610cd0565b90506000198114610ea05781811015610e935760405162461bcd60e51b815260206004820152601d60248201527f45524332303a20696e73756666696369656e7420616c6c6f77616e636500000060448201526064016107de565b610ea08484848403610cfb565b50505050565b6001600160a01b038316610f0a5760405162461bcd60e51b815260206004820152602560248201527f45524332303a207472616e736665722066726f6d20746865207a65726f206164604482015264647265737360d81b60648201526084016107de565b6001600160a01b038216610f6c5760405162461bcd60e51b815260206004820152602360248201527f45524332303a207472616e7366657220746f20746865207a65726f206164647260448201526265737360e81b60648201526084016107de565b610f7783838361141f565b6001600160a01b03831660009081526020819052604090205481811015610fef5760405162461bcd60e51b815260206004820152602660248201527f45524332303a207472616e7366657220616d6f756e7420657863656564732062604482015265616c616e636560d01b60648201526084016107de565b6001600160a01b03808516600090815260208190526040808220858503905591851681529081208054849290611026908490611890565b92505081905550826001600160a01b0316846001600160a01b03167fddf252ad1be2c89b69c2b068fc378daa952ba7f163c4a11628f55a4df523b3ef8460405161107291815260200190565b60405180910390a3610ea0565b6110898282610bc6565b6106785760008281526005602090815260408083206001600160a01b03851684529091529020805460ff191660011790556110c13390565b6001600160a01b0316816001600160a01b0316837f2f8788117e7eff1d82e926ec794901d17c78024a50270940304540a733656f0d60405160405180910390a45050565b61110f8282610bc6565b156106785760008281526005602090815260408083206001600160a01b0385168085529252808320805460ff1916905551339285917ff6391f5c32d9c69d2a47ea670b442974b53935d1edc7fd64eb21e047a839171b9190a45050565b6001600160a01b0382166111c25760405162461bcd60e51b815260206004820152601f60248201527f45524332303a206d696e7420746f20746865207a65726f20616464726573730060448201526064016107de565b6111ce6000838361141f565b80600260008282546111e09190611890565b90915550506001600160a01b0382166000908152602081905260408120805483929061120d908490611890565b90915550506040518181526001600160a01b038316906000907fddf252ad1be2c89b69c2b068fc378daa952ba7f163c4a11628f55a4df523b3ef9060200160405180910390a35050565b610678828261107f565b6001600160a01b0382166112c15760405162461bcd60e51b815260206004820152602160248201527f45524332303a206275726e2066726f6d20746865207a65726f206164647265736044820152607360f81b60648201526084016107de565b6112cd8260008361141f565b6001600160a01b038216600090815260208190526040902054818110156113415760405162461bcd60e51b815260206004820152602260248201527f45524332303a206275726e20616d6f756e7420657863656564732062616c616e604482015261636560f01b60648201526084016107de565b6001600160a01b03831660009081526020819052604081208383039055600280548492906113709084906118a3565b90915550506040518281526000906001600160a01b038516907fddf252ad1be2c89b69c2b068fc378daa952ba7f163c4a11628f55a4df523b3ef9060200160405180910390a3505050565b6113c58282610bc6565b610678576113dd816001600160a01b03166014611510565b6113e8836020611510565b6040516020016113f992919061191e565b60408051601f198184030181529082905262461bcd60e51b82526107de91600401611701565b6001600160a01b038316600090815260208181526040808320546008909252822054909161144d82846118a3565b6001600160a01b03871660009081526007602090815260408083205491839052822054929350909161147f91906118a3565b6006549091506001600160a01b03888116911614806114b157506114b16000805160206119d783398151915288610bc6565b806114c357506001600160a01b038716155b61150757600082116114e75760405162461bcd60e51b81526004016107de906118ef565b600081116115075760405162461bcd60e51b81526004016107de906118ef565b50505050505050565b6060600061151f8360026118b6565b61152a906002611890565b67ffffffffffffffff81111561154257611542611993565b6040519080825280601f01601f19166020018201604052801561156c576020820181803683370190505b509050600360fc1b81600081518110611587576115876119a9565b60200101906001600160f81b031916908160001a905350600f60fb1b816001815181106115b6576115b66119a9565b60200101906001600160f81b031916908160001a90535060006115da8460026118b6565b6115e5906001611890565b90505b600181111561165d576f181899199a1a9b1b9c1cb0b131b232b360811b85600f1660108110611619576116196119a9565b1a60f81b82828151811061162f5761162f6119a9565b60200101906001600160f81b031916908160001a90535060049490941c93611656816119bf565b90506115e8565b5083156116ac5760405162461bcd60e51b815260206004820181905260248201527f537472696e67733a20686578206c656e67746820696e73756666696369656e7460448201526064016107de565b9392505050565b6000602082840312156116c557600080fd5b81356001600160e01b0319811681146116ac57600080fd5b60005b838110156116f85781810151838201526020016116e0565b50506000910152565b60208152600082518060208401526117208160408501602087016116dd565b601f01601f19169190910160400192915050565b80356001600160a01b038116811461174b57600080fd5b919050565b6000806040838503121561176357600080fd5b61176c83611734565b946020939093013593505050565b60006020828403121561178c57600080fd5b6116ac82611734565b6000806000606084860312156117aa57600080fd5b6117b384611734565b92506117c160208501611734565b9150604084013590509250925092565b6000602082840312156117e357600080fd5b5035919050565b600080604083850312156117fd57600080fd5b8235915061180d60208401611734565b90509250929050565b6000806040838503121561182957600080fd5b61183283611734565b915061180d60208401611734565b600181811c9082168061185457607f821691505b60208210810361187457634e487b7160e01b600052602260045260246000fd5b50919050565b634e487b7160e01b600052601160045260246000fd5b808201808211156105985761059861187a565b818103818111156105985761059861187a565b80820281158282048414176105985761059861187a565b6000826118ea57634e487b7160e01b600052601260045260246000fd5b500490565b602080825260159082015274151bdad95b8e88139bc81d1bdad95b9cc81b19599d605a1b604082015260600190565b7f416363657373436f6e74726f6c3a206163636f756e74200000000000000000008152600083516119568160178501602088016116dd565b7001034b99036b4b9b9b4b733903937b6329607d1b60179184019182015283516119878160288401602088016116dd565b01602801949350505050565b634e487b7160e01b600052604160045260246000fd5b634e487b7160e01b600052603260045260246000fd5b6000816119ce576119ce61187a565b50600019019056fe6a74bd5720a9ba372841f356cf6872b1006d19dfc367da64ab98cf47824ed3c0a2646970667358221220e41268e7790fcc6dc22881ee5ee41e231e504ae5e9506e8f70bbfdc9cd9629f664736f6c63430008110033",
  "linkReferences": {},
  "deployedLinkReferences": {}
}