{
  "_format": "hh-sol-artifact-1",
  "contractName": "Token",
  "sourceName": "contracts/Token.sol",
  "abi": [
    {
      "inputs": [],
      "stateMutability": "nonpayable",
      "type": "constructor"
    },
    {
      "anonymous": false,
      "inputs": [
        {
          "indexed": true,
          "internalType": "address",
          "name": "owner",
          "type": "address"
        },
        {
          "indexed": true,
          "internalType": "address",
          "name": "spender",
          "type": "address"
        },
        {
          "indexed": false,
          "internalType": "uint256",
          "name": "value",
          "type": "uint256"
        }
      ],
      "name": "Approval",
      "type": "event"
    },
    {
      "anonymous": false,
      "inputs": [
        {
          "indexed": true,
          "internalType": "address",
          "name": "user",
          "type": "address"
        },
        {
          "indexed": false,
          "internalType": "uint256",
          "name": "amount",
          "type": "uint256"
        }
      ],
      "name": "Rewarded",
      "type": "event"
    },
    {
      "anonymous": false,
      "inputs": [
        {
          "indexed": true,
          "internalType": "bytes32",
          "name": "role",
          "type": "bytes32"
        },
        {
          "indexed": true,
          "internalType": "bytes32",
          "name": "previousAdminRole",
          "type": "bytes32"
        },
        {
          "indexed": true,
          "internalType": "bytes32",
          "name": "newAdminRole",
          "type": "bytes32"
        }
      ],
      "name": "RoleAdminChanged",
      "type": "event"
    },
    {
      "anonymous": false,
      "inputs": [
        {
          "indexed": true,
          "internalType": "bytes32",
          "name": "role",
          "type": "bytes32"
        },
        {
          "indexed": true,
          "internalType": "address",
          "name": "account",
          "type": "address"
        },
        {
          "indexed": true,
          "internalType": "address",
          "name": "sender",
          "type": "address"
        }
      ],
      "name": "RoleGranted",
      "type": "event"
    },
    {
      "anonymous": false,
      "inputs": [
        {
          "indexed": true,
          "internalType": "bytes32",
          "name": "role",
          "type": "bytes32"
        },
        {
          "indexed": true,
          "internalType": "address",
          "name": "account",
          "type": "address"
        },
        {
          "indexed": true,
          "internalType": "address",
          "name": "sender",
          "type": "address"
        }
      ],
      "name": "RoleRevoked",
      "type": "event"
    },
    {
      "anonymous": false,
      "inputs": [
        {
          "indexed": true,
          "internalType": "address",
          "name": "user",
          "type": "address"
        },
        {
          "indexed": false,
          "internalType": "uint256",
          "name": "amount",
          "type": "uint256"
        }
      ],
      "name": "TokensLocked",
      "type": "event"
    },
    {
      "anonymous": false,
      "inputs": [
        {
          "indexed": true,
          "internalType": "address",
          "name": "user",
          "type": "address"
        },
        {
          "indexed": false,
          "internalType": "uint256",
          "name": "amount",
          "type": "uint256"
        }
      ],
      "name": "TokensUnlocked",
      "type": "event"
    },
    {
      "anonymous": false,
      "inputs": [
        {
          "indexed": true,
          "internalType": "address",
          "name": "from",
          "type": "address"
        },
        {
          "indexed": true,
          "internalType": "address",
          "name": "to",
          "type": "address"
        },
        {
          "indexed": false,
          "internalType": "uint256",
          "name": "value",
          "type": "uint256"
        }
      ],
      "name": "Transfer",
      "type": "event"
    },
    {
      "inputs": [],
      "name": "DEFAULT_ADMIN_ROLE",
      "outputs": [
        {
          "internalType": "bytes32",
          "name": "",
          "type": "bytes32"
        }
      ],
      "stateMutability": "view",
      "type": "function"
    },
    {
      "inputs": [],
      "name": "INITIAL_SUPPLY",
      "outputs": [
        {
          "internalType": "uint256",
          "name": "",
          "type": "uint256"
        }
      ],
      "stateMutability": "view",
      "type": "function"
    },
    {
      "inputs": [],
      "name": "NAME",
      "outputs": [
        {
          "internalType": "string",
          "name": "",
          "type": "string"
        }
      ],
      "stateMutability": "view",
      "type": "function"
    },
    {
      "inputs": [],
      "name": "SYMBOL",
      "outputs": [
        {
          "internalType": "string",
          "name": "",
          "type": "string"
        }
      ],
      "stateMutability": "view",
      "type": "function"
    },
    {
      "inputs": [],
      "name": "TEAM_MEMBER",
      "outputs": [
        {
          "internalType": "bytes32",
          "name": "",
          "type": "bytes32"
        }
      ],
      "stateMutability": "view",
      "type": "function"
    },
    {
      "inputs": [],
      "name": "TIME_TO_GET_REWARDS",
      "outputs": [
        {
          "internalType": "uint256",
          "name": "",
          "type": "uint256"
        }
      ],
      "stateMutability": "view",
      "type": "function"
    },
    {
      "inputs": [
        {
          "internalType": "address",
          "name": "addr",
          "type": "address"
        }
      ],
      "name": "addTeamMember",
      "outputs": [],
      "stateMutability": "nonpayable",
      "type": "function"
    },
    {
      "inputs": [
        {
          "internalType": "address",
          "name": "to",
          "type": "address"
        },
        {
          "internalType": "uint256",
          "name": "amount",
          "type": "uint256"
        }
      ],
      "name": "addTokensUsedBallot",
      "outputs": [],
      "stateMutability": "nonpayable",
      "type": "function"
    },
    {
      "inputs": [
        {
          "internalType": "address",
          "name": "owner",
          "type": "address"
        },
        {
          "internalType": "address",
          "name": "spender",
          "type": "address"
        }
      ],
      "name": "allowance",
      "outputs": [
        {
          "internalType": "uint256",
          "name": "",
          "type": "uint256"
        }
      ],
      "stateMutability": "view",
      "type": "function"
    },
    {
      "inputs": [
        {
          "internalType": "address",
          "name": "spender",
          "type": "address"
        },
        {
          "internalType": "uint256",
          "name": "amount",
          "type": "uint256"
        }
      ],
      "name": "approve",
      "outputs": [
        {
          "internalType": "bool",
          "name": "",
          "type": "bool"
        }
      ],
      "stateMutability": "nonpayable",
      "type": "function"
    },
    {
      "inputs": [
        {
          "internalType": "address",
          "name": "account",
          "type": "address"
        }
      ],
      "name": "balanceOf",
      "outputs": [
        {
          "internalType": "uint256",
          "name": "",
          "type": "uint256"
        }
      ],
      "stateMutability": "view",
      "type": "function"
    },
    {
      "inputs": [
        {
          "internalType": "address",
          "name": "from",
          "type": "address"
        },
        {
          "internalType": "uint256",
          "name": "amount",
          "type": "uint256"
        }
      ],
      "name": "burn",
      "outputs": [],
      "stateMutability": "nonpayable",
      "type": "function"
    },
    {
      "inputs": [],
      "name": "decimals",
      "outputs": [
        {
          "internalType": "uint8",
          "name": "",
          "type": "uint8"
        }
      ],
      "stateMutability": "view",
      "type": "function"
    },
    {
      "inputs": [
        {
          "internalType": "address",
          "name": "spender",
          "type": "address"
        },
        {
          "internalType": "uint256",
          "name": "subtractedValue",
          "type": "uint256"
        }
      ],
      "name": "decreaseAllowance",
      "outputs": [
        {
          "internalType": "bool",
          "name": "",
          "type": "bool"
        }
      ],
      "stateMutability": "nonpayable",
      "type": "function"
    },
    {
      "inputs": [],
      "name": "getReward",
      "outputs": [],
      "stateMutability": "nonpayable",
      "type": "function"
    },
    {
      "inputs": [
        {
          "internalType": "bytes32",
          "name": "role",
          "type": "bytes32"
        }
      ],
      "name": "getRoleAdmin",
      "outputs": [
        {
          "internalType": "bytes32",
          "name": "",
          "type": "bytes32"
        }
      ],
      "stateMutability": "view",
      "type": "function"
    },
    {
      "inputs": [
        {
          "internalType": "bytes32",
          "name": "role",
          "type": "bytes32"
        },
        {
          "internalType": "address",
          "name": "account",
          "type": "address"
        }
      ],
      "name": "grantRole",
      "outputs": [],
      "stateMutability": "nonpayable",
      "type": "function"
    },
    {
      "inputs": [
        {
          "internalType": "bytes32",
          "name": "role",
          "type": "bytes32"
        },
        {
          "internalType": "address",
          "name": "account",
          "type": "address"
        }
      ],
      "name": "hasRole",
      "outputs": [
        {
          "internalType": "bool",
          "name": "",
          "type": "bool"
        }
      ],
      "stateMutability": "view",
      "type": "function"
    },
    {
      "inputs": [
        {
          "internalType": "address",
          "name": "spender",
          "type": "address"
        },
        {
          "internalType": "uint256",
          "name": "addedValue",
          "type": "uint256"
        }
      ],
      "name": "increaseAllowance",
      "outputs": [
        {
          "internalType": "bool",
          "name": "",
          "type": "bool"
        }
      ],
      "stateMutability": "nonpayable",
      "type": "function"
    },
    {
      "inputs": [
        {
          "internalType": "uint256",
          "name": "amount",
          "type": "uint256"
        }
      ],
      "name": "lockTokens",
      "outputs": [],
      "stateMutability": "nonpayable",
      "type": "function"
    },
    {
      "inputs": [
        {
          "internalType": "address",
          "name": "to",
          "type": "address"
        },
        {
          "internalType": "uint256",
          "name": "amount",
          "type": "uint256"
        }
      ],
      "name": "mint",
      "outputs": [],
      "stateMutability": "nonpayable",
      "type": "function"
    },
    {
      "inputs": [],
      "name": "name",
      "outputs": [
        {
          "internalType": "string",
          "name": "",
          "type": "string"
        }
      ],
      "stateMutability": "view",
      "type": "function"
    },
    {
      "inputs": [
        {
          "internalType": "address",
          "name": "addr",
          "type": "address"
        }
      ],
      "name": "removeTeamMember",
      "outputs": [],
      "stateMutability": "nonpayable",
      "type": "function"
    },
    {
      "inputs": [
        {
          "internalType": "address",
          "name": "from",
          "type": "address"
        },
        {
          "internalType": "uint256",
          "name": "amount",
          "type": "uint256"
        }
      ],
      "name": "removeTokensUsedBallot",
      "outputs": [],
      "stateMutability": "nonpayable",
      "type": "function"
    },
    {
      "inputs": [
        {
          "internalType": "bytes32",
          "name": "role",
          "type": "bytes32"
        },
        {
          "internalType": "address",
          "name": "account",
          "type": "address"
        }
      ],
      "name": "renounceRole",
      "outputs": [],
      "stateMutability": "nonpayable",
      "type": "function"
    },
    {
      "inputs": [
        {
          "internalType": "bytes32",
          "name": "role",
          "type": "bytes32"
        },
        {
          "internalType": "address",
          "name": "account",
          "type": "address"
        }
      ],
      "name": "revokeRole",
      "outputs": [],
      "stateMutability": "nonpayable",
      "type": "function"
    },
    {
      "inputs": [],
      "name": "reward",
      "outputs": [
        {
          "internalType": "uint256",
          "name": "",
          "type": "uint256"
        }
      ],
      "stateMutability": "view",
      "type": "function"
    },
    {
      "inputs": [
        {
          "internalType": "uint256",
          "name": "amount",
          "type": "uint256"
        }
      ],
      "name": "setReward",
      "outputs": [],
      "stateMutability": "nonpayable",
      "type": "function"
    },
    {
      "inputs": [
        {
          "internalType": "bytes4",
          "name": "interfaceId",
          "type": "bytes4"
        }
      ],
      "name": "supportsInterface",
      "outputs": [
        {
          "internalType": "bool",
          "name": "",
          "type": "bool"
        }
      ],
      "stateMutability": "view",
      "type": "function"
    },
    {
      "inputs": [],
      "name": "symbol",
      "outputs": [
        {
          "internalType": "string",
          "name": "",
          "type": "string"
        }
      ],
      "stateMutability": "view",
      "type": "function"
    },
    {
      "inputs": [
        {
          "internalType": "address",
          "name": "",
          "type": "address"
        }
      ],
      "name": "time",
      "outputs": [
        {
          "internalType": "uint256",
          "name": "",
          "type": "uint256"
        }
      ],
      "stateMutability": "view",
      "type": "function"
    },
    {
      "inputs": [
        {
          "internalType": "address",
          "name": "",
          "type": "address"
        }
      ],
      "name": "tokensUsedBallot",
      "outputs": [
        {
          "internalType": "uint256",
          "name": "",
          "type": "uint256"
        }
      ],
      "stateMutability": "view",
      "type": "function"
    },
    {
      "inputs": [
        {
          "internalType": "address",
          "name": "",
          "type": "address"
        }
      ],
      "name": "tokensUsedLock",
      "outputs": [
        {
          "internalType": "uint256",
          "name": "",
          "type": "uint256"
        }
      ],
      "stateMutability": "view",
      "type": "function"
    },
    {
      "inputs": [],
      "name": "totalLockedTokens",
      "outputs": [
        {
          "internalType": "uint256",
          "name": "",
          "type": "uint256"
        }
      ],
      "stateMutability": "view",
      "type": "function"
    },
    {
      "inputs": [],
      "name": "totalSupply",
      "outputs": [
        {
          "internalType": "uint256",
          "name": "",
          "type": "uint256"
        }
      ],
      "stateMutability": "view",
      "type": "function"
    },
    {
      "inputs": [
        {
          "internalType": "address",
          "name": "to",
          "type": "address"
        },
        {
          "internalType": "uint256",
          "name": "amount",
          "type": "uint256"
        }
      ],
      "name": "transfer",
      "outputs": [
        {
          "internalType": "bool",
          "name": "",
          "type": "bool"
        }
      ],
      "stateMutability": "nonpayable",
      "type": "function"
    },
    {
      "inputs": [
        {
          "internalType": "address",
          "name": "from",
          "type": "address"
        },
        {
          "internalType": "address",
          "name": "to",
          "type": "address"
        },
        {
          "internalType": "uint256",
          "name": "amount",
          "type": "uint256"
        }
      ],
      "name": "transferFrom",
      "outputs": [
        {
          "internalType": "bool",
          "name": "",
          "type": "bool"
        }
      ],
      "stateMutability": "nonpayable",
      "type": "function"
    },
    {
      "inputs": [
        {
          "internalType": "uint256",
          "name": "amount",
          "type": "uint256"
        }
      ],
      "name": "unlockTokens",
      "outputs": [],
      "stateMutability": "nonpayable",
      "type": "function"
    }
  ],
  "bytecode": "0x60806040523480156200001157600080fd5b506040518060400160405280600681526020016520a4a1b7b4b760d11b8152506040518060400160405280600381526020016258414960e81b81525081600390816200005e9190620004c4565b5060046200006d8282620004c4565b506200007f91506000905033620000d5565b620000ab7f6a74bd5720a9ba372841f356cf6872b1006d19dfc367da64ab98cf47824ed3c033620000d5565b620000bd33655af3107a4000620000e5565b600680546001600160a01b03191633179055620005d2565b620000e18282620001dc565b5050565b6001600160a01b038216620001415760405162461bcd60e51b815260206004820152601f60248201527f45524332303a206d696e7420746f20746865207a65726f20616464726573730060448201526064015b60405180910390fd5b6200014f6000838362000266565b8060026000828254620001639190620005a6565b90915550506001600160a01b0382166000908152602081905260408120805483929062000192908490620005a6565b90915550506040518181526001600160a01b038316906000907fddf252ad1be2c89b69c2b068fc378daa952ba7f163c4a11628f55a4df523b3ef9060200160405180910390a35050565b620001e88282620003f3565b620000e15760008281526005602090815260408083206001600160a01b03851684529091529020805460ff19166001179055620002223390565b6001600160a01b0316816001600160a01b0316837f2f8788117e7eff1d82e926ec794901d17c78024a50270940304540a733656f0d60405160405180910390a45050565b6001600160a01b0383166000908152602081815260408083205460089092528220549091620002968284620005bc565b6001600160a01b038716600090815260076020908152604080832054918390528220549293509091620002ca9190620005bc565b6006549091506001600160a01b0388811691161480620003115750620003117f6a74bd5720a9ba372841f356cf6872b1006d19dfc367da64ab98cf47824ed3c088620003f3565b806200032457506001600160a01b038716155b620003cd57600082116200037b5760405162461bcd60e51b815260206004820152601560248201527f546f6b656e3a204e6f20746f6b656e73206c6566740000000000000000000000604482015260640162000138565b60008111620003cd5760405162461bcd60e51b815260206004820152601560248201527f546f6b656e3a204e6f20746f6b656e73206c6566740000000000000000000000604482015260640162000138565b620003e5878787620003ee60201b6200070f1760201c565b50505050505050565b505050565b60008281526005602090815260408083206001600160a01b038516845290915290205460ff165b92915050565b634e487b7160e01b600052604160045260246000fd5b600181811c908216806200044b57607f821691505b6020821081036200046c57634e487b7160e01b600052602260045260246000fd5b50919050565b601f821115620003ee57600081815260208120601f850160051c810160208610156200049b5750805b601f850160051c820191505b81811015620004bc57828155600101620004a7565b505050505050565b81516001600160401b03811115620004e057620004e062000420565b620004f881620004f1845462000436565b8462000472565b602080601f831160018114620005305760008415620005175750858301515b600019600386901b1c1916600185901b178555620004bc565b600085815260208120601f198616915b82811015620005615788860151825594840194600190910190840162000540565b5085821015620005805787850151600019600388901b60f8161c191681555b5050505050600190811b01905550565b634e487b7160e01b600052601160045260246000fd5b808201808211156200041a576200041a62000590565b818103818111156200041a576200041a62000590565b6119f480620005e26000396000f3fe608060405234801561001057600080fd5b50600436106102325760003560e01c80633eb2b5ad116101305780639dc29fac116100b8578063bfd987c51161007c578063bfd987c5146104d8578063d547741f146104f8578063dd62ed3e1461050b578063f5c476f91461051e578063f76f8d781461052757600080fd5b80639dc29fac14610472578063a217fddf14610485578063a3f4df7e1461048d578063a457c2d7146104b2578063a9059cbb146104c557600080fd5b80637c405325116100ff5780637c4053251461041a5780637c67a3e21461042d57806391d148541461044d578063933237731461046057806395d89b411461046a57600080fd5b80633eb2b5ad146103b857806340c10f19146103cb5780636e27d889146103de57806370a08231146103f157600080fd5b8063248a9ca3116101be578063313ce56711610182578063313ce567146103685780633648fd7a1461037757806336568abe1461038a578063395093511461039d5780633d18b912146103b057600080fd5b8063248a9ca3146102fd578063293be456146103205780632c4c7f8c146103335780632f2ff15d146103485780632ff2e9dc1461035b57600080fd5b806318160ddd1161020557806318160ddd1461029c578063207c3a50146102ae5780632283804c146102ce578063228cb733146102e157806323b872dd146102ea57600080fd5b806301ffc9a71461023757806306fdde031461025f578063095ea7b31461027457806314eba02614610287575b600080fd5b61024a610245366004611673565b610549565b60405190151581526020015b60405180910390f35b610267610580565b60405161025691906116c1565b61024a610282366004611710565b610612565b61029a61029536600461173a565b61062a565b005b6002545b604051908152602001610256565b6102a06102bc36600461173a565b60086020526000908152604090205481565b61029a6102dc366004611710565b61065e565b6102a0600a5481565b61024a6102f8366004611755565b6106a8565b6102a061030b366004611791565b60009081526005602052604090206001015490565b61029a61032e366004611791565b6106cc565b6102a060008051602061199f83398151915281565b61029a6103563660046117aa565b6106ea565b6102a0655af3107a400081565b60405160088152602001610256565b61029a610385366004611710565b610714565b61029a6103983660046117aa565b610754565b61024a6103ab366004611710565b6107d3565b61029a6107f5565b61029a6103c636600461173a565b610946565b61029a6103d9366004611710565b610976565b61029a6103ec366004611791565b610998565b6102a06103ff36600461173a565b6001600160a01b031660009081526020819052604090205490565b61029a610428366004611791565b610ab0565b6102a061043b36600461173a565b600b6020526000908152604090205481565b61024a61045b3660046117aa565b610b86565b6102a06202a30081565b610267610bb1565b61029a610480366004611710565b610bc0565b6102a0600081565b6102676040518060400160405280600681526020016520a4a1b7b4b760d11b81525081565b61024a6104c0366004611710565b610be2565b61024a6104d3366004611710565b610c5d565b6102a06104e636600461173a565b60076020526000908152604090205481565b61029a6105063660046117aa565b610c6b565b6102a06105193660046117d6565b610c90565b6102a060095481565b6102676040518060400160405280600381526020016258414960e81b81525081565b60006001600160e01b03198216637965db0b60e01b148061057a57506301ffc9a760e01b6001600160e01b03198316145b92915050565b60606003805461058f90611800565b80601f01602080910402602001604051908101604052809291908181526020018280546105bb90611800565b80156106085780601f106105dd57610100808354040283529160200191610608565b820191906000526020600020905b8154815290600101906020018083116105eb57829003601f168201915b5050505050905090565b600033610620818585610cbb565b5060019392505050565b60008051602061199f83398151915261064281610ddf565b61065a60008051602061199f83398151915283610c6b565b5050565b60008051602061199f83398151915261067681610ddf565b6001600160a01b0383166000908152600760205260408120805484929061069e908490611850565b9091555050505050565b6000336106b6858285610dec565b6106c1858585610e66565b506001949350505050565b60008051602061199f8339815191526106e481610ddf565b50600a55565b60008281526005602052604090206001015461070581610ddf565b61070f838361103f565b505050565b60008051602061199f83398151915261072c81610ddf565b6001600160a01b0383166000908152600760205260408120805484929061069e908490611863565b6001600160a01b03811633146107c95760405162461bcd60e51b815260206004820152602f60248201527f416363657373436f6e74726f6c3a2063616e206f6e6c792072656e6f756e636560448201526e103937b632b9903337b91039b2b63360891b60648201526084015b60405180910390fd5b61065a82826110c5565b6000336106208185856107e68383610c90565b6107f09190611850565b610cbb565b33600090815260086020526040902054806108525760405162461bcd60e51b815260206004820152601760248201527f546f6b656e3a204e6f20746f6b656e73206c6f636b656400000000000000000060448201526064016107c0565b336000908152600b602052604081205461086c9042611863565b336000908152600b6020526040902042905590506202a3008110156108c55760405162461bcd60e51b815260206004820152600f60248201526e4e6f7420656e6f7567682074696d6560881b60448201526064016107c0565b6009546000906108d6846064611876565b6108e09190611895565b905060006064600a54836108f49190611876565b6108fe9190611895565b905061090a338261112c565b60405181815233907fb3b7a071186534c03b40695710096f289fd4ed6c1a374aff0bb648955e4fe563906020015b60405180910390a250505050565b60008051602061199f83398151915261095e81610ddf565b61065a60008051602061199f83398151915283611217565b60008051602061199f83398151915261098e81610ddf565b61070f838361112c565b3360009081526020818152604080832054600890925282205490916109bd8284611863565b9050600081116109df5760405162461bcd60e51b81526004016107c0906118b7565b80841115610a2f5760405162461bcd60e51b815260206004820152601d60248201527f546f6b656e3a204e6f7420656e6f75676820746f6b656e73206c65667400000060448201526064016107c0565b3360009081526008602052604081208054869290610a4e908490611850565b925050819055508360096000828254610a679190611850565b9091555050336000818152600b602052604090819020429055517fac87f20a77d28ee8bbb58ec87ea8fa968b3393efae1a368fd50b767c2847391c906109389087815260200190565b3360009081526008602052604090205480821115610b105760405162461bcd60e51b815260206004820152601f60248201527f546f6b656e3a204e6f7420656e6f75676820746f6b656e73206c6f636b65640060448201526064016107c0565b3360009081526008602052604081208054849290610b2f908490611863565b925050819055508160096000828254610b489190611863565b909155505060405182815233907fe7b379c6c1fa169e9079c25e9143b127637eef8ec8c9d5c06ddb4ab3e11958889060200160405180910390a25050565b60009182526005602090815260408084206001600160a01b0393909316845291905290205460ff1690565b60606004805461058f90611800565b60008051602061199f833981519152610bd881610ddf565b61070f8383611221565b60003381610bf08286610c90565b905083811015610c505760405162461bcd60e51b815260206004820152602560248201527f45524332303a2064656372656173656420616c6c6f77616e63652062656c6f77604482015264207a65726f60d81b60648201526084016107c0565b6106c18286868403610cbb565b600033610620818585610e66565b600082815260056020526040902060010154610c8681610ddf565b61070f83836110c5565b6001600160a01b03918216600090815260016020908152604080832093909416825291909152205490565b6001600160a01b038316610d1d5760405162461bcd60e51b8152602060048201526024808201527f45524332303a20617070726f76652066726f6d20746865207a65726f206164646044820152637265737360e01b60648201526084016107c0565b6001600160a01b038216610d7e5760405162461bcd60e51b815260206004820152602260248201527f45524332303a20617070726f766520746f20746865207a65726f206164647265604482015261737360f01b60648201526084016107c0565b6001600160a01b0383811660008181526001602090815260408083209487168084529482529182902085905590518481527f8c5be1e5ebec7d5bd14f71427d1e84f3dd0314c0f7b2291e5b200ac8c7c3b925910160405180910390a3505050565b610de9813361137b565b50565b6000610df88484610c90565b90506000198114610e605781811015610e535760405162461bcd60e51b815260206004820152601d60248201527f45524332303a20696e73756666696369656e7420616c6c6f77616e636500000060448201526064016107c0565b610e608484848403610cbb565b50505050565b6001600160a01b038316610eca5760405162461bcd60e51b815260206004820152602560248201527f45524332303a207472616e736665722066726f6d20746865207a65726f206164604482015264647265737360d81b60648201526084016107c0565b6001600160a01b038216610f2c5760405162461bcd60e51b815260206004820152602360248201527f45524332303a207472616e7366657220746f20746865207a65726f206164647260448201526265737360e81b60648201526084016107c0565b610f378383836113df565b6001600160a01b03831660009081526020819052604090205481811015610faf5760405162461bcd60e51b815260206004820152602660248201527f45524332303a207472616e7366657220616d6f756e7420657863656564732062604482015265616c616e636560d01b60648201526084016107c0565b6001600160a01b03808516600090815260208190526040808220858503905591851681529081208054849290610fe6908490611850565b92505081905550826001600160a01b0316846001600160a01b03167fddf252ad1be2c89b69c2b068fc378daa952ba7f163c4a11628f55a4df523b3ef8460405161103291815260200190565b60405180910390a3610e60565b6110498282610b86565b61065a5760008281526005602090815260408083206001600160a01b03851684529091529020805460ff191660011790556110813390565b6001600160a01b0316816001600160a01b0316837f2f8788117e7eff1d82e926ec794901d17c78024a50270940304540a733656f0d60405160405180910390a45050565b6110cf8282610b86565b1561065a5760008281526005602090815260408083206001600160a01b0385168085529252808320805460ff1916905551339285917ff6391f5c32d9c69d2a47ea670b442974b53935d1edc7fd64eb21e047a839171b9190a45050565b6001600160a01b0382166111825760405162461bcd60e51b815260206004820152601f60248201527f45524332303a206d696e7420746f20746865207a65726f20616464726573730060448201526064016107c0565b61118e600083836113df565b80600260008282546111a09190611850565b90915550506001600160a01b038216600090815260208190526040812080548392906111cd908490611850565b90915550506040518181526001600160a01b038316906000907fddf252ad1be2c89b69c2b068fc378daa952ba7f163c4a11628f55a4df523b3ef9060200160405180910390a35050565b61065a828261103f565b6001600160a01b0382166112815760405162461bcd60e51b815260206004820152602160248201527f45524332303a206275726e2066726f6d20746865207a65726f206164647265736044820152607360f81b60648201526084016107c0565b61128d826000836113df565b6001600160a01b038216600090815260208190526040902054818110156113015760405162461bcd60e51b815260206004820152602260248201527f45524332303a206275726e20616d6f756e7420657863656564732062616c616e604482015261636560f01b60648201526084016107c0565b6001600160a01b0383166000908152602081905260408120838303905560028054849290611330908490611863565b90915550506040518281526000906001600160a01b038516907fddf252ad1be2c89b69c2b068fc378daa952ba7f163c4a11628f55a4df523b3ef9060200160405180910390a3505050565b6113858282610b86565b61065a5761139d816001600160a01b031660146114d0565b6113a88360206114d0565b6040516020016113b99291906118e6565b60408051601f198184030181529082905262461bcd60e51b82526107c0916004016116c1565b6001600160a01b038316600090815260208181526040808320546008909252822054909161140d8284611863565b6001600160a01b03871660009081526007602090815260408083205491839052822054929350909161143f9190611863565b6006549091506001600160a01b0388811691161480611471575061147160008051602061199f83398151915288610b86565b8061148357506001600160a01b038716155b6114c757600082116114a75760405162461bcd60e51b81526004016107c0906118b7565b600081116114c75760405162461bcd60e51b81526004016107c0906118b7565b50505050505050565b606060006114df836002611876565b6114ea906002611850565b67ffffffffffffffff8111156115025761150261195b565b6040519080825280601f01601f19166020018201604052801561152c576020820181803683370190505b509050600360fc1b8160008151811061154757611547611971565b60200101906001600160f81b031916908160001a905350600f60fb1b8160018151811061157657611576611971565b60200101906001600160f81b031916908160001a905350600061159a846002611876565b6115a5906001611850565b90505b600181111561161d576f181899199a1a9b1b9c1cb0b131b232b360811b85600f16601081106115d9576115d9611971565b1a60f81b8282815181106115ef576115ef611971565b60200101906001600160f81b031916908160001a90535060049490941c9361161681611987565b90506115a8565b50831561166c5760405162461bcd60e51b815260206004820181905260248201527f537472696e67733a20686578206c656e67746820696e73756666696369656e7460448201526064016107c0565b9392505050565b60006020828403121561168557600080fd5b81356001600160e01b03198116811461166c57600080fd5b60005b838110156116b85781810151838201526020016116a0565b50506000910152565b60208152600082518060208401526116e081604085016020870161169d565b601f01601f19169190910160400192915050565b80356001600160a01b038116811461170b57600080fd5b919050565b6000806040838503121561172357600080fd5b61172c836116f4565b946020939093013593505050565b60006020828403121561174c57600080fd5b61166c826116f4565b60008060006060848603121561176a57600080fd5b611773846116f4565b9250611781602085016116f4565b9150604084013590509250925092565b6000602082840312156117a357600080fd5b5035919050565b600080604083850312156117bd57600080fd5b823591506117cd602084016116f4565b90509250929050565b600080604083850312156117e957600080fd5b6117f2836116f4565b91506117cd602084016116f4565b600181811c9082168061181457607f821691505b60208210810361183457634e487b7160e01b600052602260045260246000fd5b50919050565b634e487b7160e01b600052601160045260246000fd5b8082018082111561057a5761057a61183a565b8181038181111561057a5761057a61183a565b60008160001904831182151516156118905761189061183a565b500290565b6000826118b257634e487b7160e01b600052601260045260246000fd5b500490565b602080825260159082015274151bdad95b8e88139bc81d1bdad95b9cc81b19599d605a1b604082015260600190565b7f416363657373436f6e74726f6c3a206163636f756e742000000000000000000081526000835161191e81601785016020880161169d565b7001034b99036b4b9b9b4b733903937b6329607d1b601791840191820152835161194f81602884016020880161169d565b01602801949350505050565b634e487b7160e01b600052604160045260246000fd5b634e487b7160e01b600052603260045260246000fd5b6000816119965761199661183a565b50600019019056fe6a74bd5720a9ba372841f356cf6872b1006d19dfc367da64ab98cf47824ed3c0a2646970667358221220088c84ec3d7d7b61f1abf26ba6b4947fef43d09720bc016c6de569508387dbb364736f6c63430008100033",
  "linkReferences": {},
  "deployedLinkReferences": {}
}